{
  "transactions": [
    {
      "hash": "0xbd332f05c7542f5e771d76f4428b9c5e0f2501a63e3f041f08b28691a8c8a89e",
      "transactionType": "CREATE",
      "contractName": "KiteAgentFiService",
      "contractAddress": "0x10e3399025e930da7b4d4be71181157ccee4e882",
      "function": null,
      "arguments": null,
      "transaction": {
        "from": "0x96455c9b00d530bd0629b71b674298440328b1dd",
        "gas": "0x1a2055",
        "value": "0x0",
        "input": "0x608060405234801561000f575f80fd5b50335f806101000a81548173ffffffffffffffffffffffffffffffffffffffff021916908373ffffffffffffffffffffffffffffffffffffffff1602179055506116768061005c5f395ff3fe608060405234801561000f575f80fd5b506004361061007b575f3560e01c80638da5cb5b116100595780638da5cb5b146100ec578063aa8e74021461010a578063b0575dd214610126578063c22c4f43146101425761007b565b8063062375261461007f578063499429c61461009d578063850d2530146100cd575b5f80fd5b610087610176565b6040516100949190610b60565b60405180910390f35b6100b760048036038101906100b29190610c0c565b61017c565b6040516100c49190610b60565b60405180910390f35b6100d56103da565b6040516100e3929190610f67565b60405180910390f35b6100f4610751565b6040516101019190610fdb565b60405180910390f35b610124600480360381019061011f919061101e565b610774565b005b610140600480360381019061013b9190611086565b610868565b005b61015c600480360381019061015791906110d6565b610949565b60405161016d959493929190611158565b60405180910390f35b60025481565b5f805f9054906101000a900473ffffffffffffffffffffffffffffffffffffffff1673ffffffffffffffffffffffffffffffffffffffff163373ffffffffffffffffffffffffffffffffffffffff161461020b576040517f08c379a000000000000000000000000000000000000000000000000000000000815260040161020290611208565b60405180910390fd5b60025f81548092919061021d90611253565b9190505590506040518060a0016040528089898080601f0160208091040260200160405190810160405280939291908181526020018383808284375f81840152601f19601f82011690508083019250505050505050815260200187878080601f0160208091040260200160405190810160405280939291908181526020018383808284375f81840152601f19601f82011690508083019250505050505050815260200185815260200160011515815260200184848080601f0160208091040260200160405190810160405280939291908181526020018383808284375f81840152601f19601f8201169050808301925050505050505081525060015f8381526020019081526020015f205f820151815f01908161033a91906114c1565b50602082015181600101908161035091906114c1565b50604082015181600201556060820151816003015f6101000a81548160ff021916908315150217905550608082015181600401908161038f91906114c1565b50905050807fd1e38e2610bc0b364be40cfd3e9237cc9ef8aee37be4c4db188c823ad03f03128989876040516103c7939291906115ca565b60405180910390a2979650505050505050565b6060805f805b60025481101561042c5760015f8281526020019081526020015f206003015f9054906101000a900460ff161561041f57818061041b90611253565b9250505b80806001019150506103e0565b508067ffffffffffffffff8111156104475761044661129a565b5b6040519080825280602002602001820160405280156104755781602001602082028036833780820191505090505b5092508067ffffffffffffffff8111156104925761049161129a565b5b6040519080825280602002602001820160405280156104cb57816020015b6104b8610b19565b8152602001906001900390816104b05790505b5091505f805b60025481101561074a5760015f8281526020019081526020015f206003015f9054906101000a900460ff161561073d5780858381518110610515576105146115fa565b5b60200260200101818152505060015f8281526020019081526020015f206040518060a00160405290815f8201805461054c906112f4565b80601f0160208091040260200160405190810160405280929190818152602001828054610578906112f4565b80156105c35780601f1061059a576101008083540402835291602001916105c3565b820191905f5260205f20905b8154815290600101906020018083116105a657829003601f168201915b505050505081526020016001820180546105dc906112f4565b80601f0160208091040260200160405190810160405280929190818152602001828054610608906112f4565b80156106535780601f1061062a57610100808354040283529160200191610653565b820191905f5260205f20905b81548152906001019060200180831161063657829003601f168201915b5050505050815260200160028201548152602001600382015f9054906101000a900460ff16151515158152602001600482018054610690906112f4565b80601f01602080910402602001604051908101604052809291908181526020018280546106bc906112f4565b80156107075780601f106106de57610100808354040283529160200191610707565b820191905f5260205f20905b8154815290600101906020018083116106ea57829003601f168201915b505050505081525050848381518110610723576107226115fa565b5b6020026020010181905250818061073990611253565b9250505b80806001019150506104d1565b5050509091565b5f8054906101000a900473ffffffffffffffffffffffffffffffffffffffff1681565b5f8054906101000a900473ffffffffffffffffffffffffffffffffffffffff1673ffffffffffffffffffffffffffffffffffffffff163373ffffffffffffffffffffffffffffffffffffffff1614610801576040517f08c379a00000000000000000000000000000000000000000000000000000000081526004016107f890611208565b60405180910390fd5b8060015f8481526020019081526020015f206003015f6101000a81548160ff021916908315150217905550817f55fc44033d76f0476604037138695d6580815828e512faec38f21fd51a1f2f9e8260405161085c9190611627565b60405180910390a25050565b5f8054906101000a900473ffffffffffffffffffffffffffffffffffffffff1673ffffffffffffffffffffffffffffffffffffffff163373ffffffffffffffffffffffffffffffffffffffff16146108f5576040517f08c379a00000000000000000000000000000000000000000000000000000000081526004016108ec90611208565b60405180910390fd5b8173ffffffffffffffffffffffffffffffffffffffff16837f4d3f6d68b42e1e039d6e7323b2b8bdeaf223f453882ce17a5984f4d6aabbdb338360405161093c9190610b60565b60405180910390a3505050565b6001602052805f5260405f205f91509050805f018054610968906112f4565b80601f0160208091040260200160405190810160405280929190818152602001828054610994906112f4565b80156109df5780601f106109b6576101008083540402835291602001916109df565b820191905f5260205f20905b8154815290600101906020018083116109c257829003601f168201915b5050505050908060010180546109f4906112f4565b80601f0160208091040260200160405190810160405280929190818152602001828054610a20906112f4565b8015610a6b5780601f10610a4257610100808354040283529160200191610a6b565b820191905f5260205f20905b815481529060010190602001808311610a4e57829003601f168201915b505050505090806002015490806003015f9054906101000a900460ff1690806004018054610a98906112f4565b80601f0160208091040260200160405190810160405280929190818152602001828054610ac4906112f4565b8015610b0f5780601f10610ae657610100808354040283529160200191610b0f565b820191905f5260205f20905b815481529060010190602001808311610af257829003601f168201915b5050505050905085565b6040518060a0016040528060608152602001606081526020015f81526020015f15158152602001606081525090565b5f819050919050565b610b5a81610b48565b82525050565b5f602082019050610b735f830184610b51565b92915050565b5f80fd5b5f80fd5b5f80fd5b5f80fd5b5f80fd5b5f8083601f840112610ba257610ba1610b81565b5b8235905067ffffffffffffffff811115610bbf57610bbe610b85565b5b602083019150836001820283011115610bdb57610bda610b89565b5b9250929050565b610beb81610b48565b8114610bf5575f80fd5b50565b5f81359050610c0681610be2565b92915050565b5f805f805f805f6080888a031215610c2757610c26610b79565b5b5f88013567ffffffffffffffff811115610c4457610c43610b7d565b5b610c508a828b01610b8d565b9750975050602088013567ffffffffffffffff811115610c7357610c72610b7d565b5b610c7f8a828b01610b8d565b95509550506040610c928a828b01610bf8565b935050606088013567ffffffffffffffff811115610cb357610cb2610b7d565b5b610cbf8a828b01610b8d565b925092505092959891949750929550565b5f81519050919050565b5f82825260208201905092915050565b5f819050602082019050919050565b610d0281610b48565b82525050565b5f610d138383610cf9565b60208301905092915050565b5f602082019050919050565b5f610d3582610cd0565b610d3f8185610cda565b9350610d4a83610cea565b805f5b83811015610d7a578151610d618882610d08565b9750610d6c83610d1f565b925050600181019050610d4d565b5085935050505092915050565b5f81519050919050565b5f82825260208201905092915050565b5f819050602082019050919050565b5f81519050919050565b5f82825260208201905092915050565b5f5b83811015610de7578082015181840152602081019050610dcc565b5f8484015250505050565b5f601f19601f8301169050919050565b5f610e0c82610db0565b610e168185610dba565b9350610e26818560208601610dca565b610e2f81610df2565b840191505092915050565b5f8115159050919050565b610e4e81610e3a565b82525050565b5f60a083015f8301518482035f860152610e6e8282610e02565b91505060208301518482036020860152610e888282610e02565b9150506040830151610e9d6040860182610cf9565b506060830151610eb06060860182610e45565b5060808301518482036080860152610ec88282610e02565b9150508091505092915050565b5f610ee08383610e54565b905092915050565b5f602082019050919050565b5f610efe82610d87565b610f088185610d91565b935083602082028501610f1a85610da1565b805f5b85811015610f555784840389528151610f368582610ed5565b9450610f4183610ee8565b925060208a01995050600181019050610f1d565b50829750879550505050505092915050565b5f6040820190508181035f830152610f7f8185610d2b565b90508181036020830152610f938184610ef4565b90509392505050565b5f73ffffffffffffffffffffffffffffffffffffffff82169050919050565b5f610fc582610f9c565b9050919050565b610fd581610fbb565b82525050565b5f602082019050610fee5f830184610fcc565b92915050565b610ffd81610e3a565b8114611007575f80fd5b50565b5f8135905061101881610ff4565b92915050565b5f806040838503121561103457611033610b79565b5b5f61104185828601610bf8565b92505060206110528582860161100a565b9150509250929050565b61106581610fbb565b811461106f575f80fd5b50565b5f813590506110808161105c565b92915050565b5f805f6060848603121561109d5761109c610b79565b5b5f6110aa86828701610bf8565b93505060206110bb86828701611072565b92505060406110cc86828701610bf8565b9150509250925092565b5f602082840312156110eb576110ea610b79565b5b5f6110f884828501610bf8565b91505092915050565b5f82825260208201905092915050565b5f61111b82610db0565b6111258185611101565b9350611135818560208601610dca565b61113e81610df2565b840191505092915050565b61115281610e3a565b82525050565b5f60a0820190508181035f8301526111708188611111565b905081810360208301526111848187611111565b90506111936040830186610b51565b6111a06060830185611149565b81810360808301526111b28184611111565b90509695505050505050565b7f4e6f74206f776e657200000000000000000000000000000000000000000000005f82015250565b5f6111f2600983611101565b91506111fd826111be565b602082019050919050565b5f6020820190508181035f83015261121f816111e6565b9050919050565b7f4e487b71000000000000000000000000000000000000000000000000000000005f52601160045260245ffd5b5f61125d82610b48565b91507fffffffffffffffffffffffffffffffffffffffffffffffffffffffffffffffff820361128f5761128e611226565b5b600182019050919050565b7f4e487b71000000000000000000000000000000000000000000000000000000005f52604160045260245ffd5b7f4e487b71000000000000000000000000000000000000000000000000000000005f52602260045260245ffd5b5f600282049050600182168061130b57607f821691505b60208210810361131e5761131d6112c7565b5b50919050565b5f819050815f5260205f209050919050565b5f6020601f8301049050919050565b5f82821b905092915050565b5f600883026113807fffffffffffffffffffffffffffffffffffffffffffffffffffffffffffffffff82611345565b61138a8683611345565b95508019841693508086168417925050509392505050565b5f819050919050565b5f6113c56113c06113bb84610b48565b6113a2565b610b48565b9050919050565b5f819050919050565b6113de836113ab565b6113f26113ea826113cc565b848454611351565b825550505050565b5f90565b6114066113fa565b6114118184846113d5565b505050565b5b81811015611434576114295f826113fe565b600181019050611417565b5050565b601f8211156114795761144a81611324565b61145384611336565b81016020851015611462578190505b61147661146e85611336565b830182611416565b50505b505050565b5f82821c905092915050565b5f6114995f198460080261147e565b1980831691505092915050565b5f6114b1838361148a565b9150826002028217905092915050565b6114ca82610db0565b67ffffffffffffffff8111156114e3576114e261129a565b5b6114ed82546112f4565b6114f8828285611438565b5f60209050601f831160018114611529575f8415611517578287015190505b61152185826114a6565b865550611588565b601f19841661153786611324565b5f5b8281101561155e57848901518255600182019150602085019450602081019050611539565b8683101561157b5784890151611577601f89168261148a565b8355505b6001600288020188555050505b505050505050565b828183375f83830152505050565b5f6115a98385611101565b93506115b6838584611590565b6115bf83610df2565b840190509392505050565b5f6040820190508181035f8301526115e381858761159e565b90506115f26020830184610b51565b949350505050565b7f4e487b71000000000000000000000000000000000000000000000000000000005f52603260045260245ffd5b5f60208201905061163a5f830184611149565b9291505056fea2646970667358221220aa0a74699ce478ffad5368096203c62805b1a2c74a49679332b225733400133464736f6c63430008180033",
        "nonce": "0x0",
        "chainId": "0x940"
      },
      "additionalContracts": [],
      "isFixedGasLimit": false
    },
    {
      "hash": "0x17eea0362f932ac43a1808d7a021a3bf678edea1e4860185ba92010eacab81ab",
      "transactionType": "CALL",
      "contractName": "KiteAgentFiService",
      "contractAddress": "0x10e3399025e930da7b4d4be71181157ccee4e882",
      "function": "registerService(string,string,uint256,string)",
      "arguments": [
        "AgentFi Portfolio Analyzer",
        "/agents/portfolio_analyzer/execute",
        "10000",
        "Autonomous DeFi portfolio analysis with real-time CoinGecko data"
      ],
      "transaction": {
        "from": "0x96455c9b00d530bd0629b71b674298440328b1dd",
        "to": "0x10e3399025e930da7b4d4be71181157ccee4e882",
        "gas": "0x5ae26",
        "value": "0x0",
        "input": "0x499429c6000000000000000000000000000000000000000000000000000000000000008000000000000000000000000000000000000000000000000000000000000000c000000000000000000000000000000000000000000000000000000000000027100000000000000000000000000000000000000000000000000000000000000120000000000000000000000000000000000000000000000000000000000000001a4167656e74466920506f7274666f6c696f20416e616c797a657200000000000000000000000000000000000000000000000000000000000000000000000000222f6167656e74732f706f7274666f6c696f5f616e616c797a65722f6578656375746500000000000000000000000000000000000000000000000000000000000000000000000000000000000000000000000000000000000000000000000000404175746f6e6f6d6f7573204465466920706f7274666f6c696f20616e616c797369732077697468207265616c2d74696d6520436f696e4765636b6f2064617461",
        "nonce": "0x1",
        "chainId": "0x940"
      },
      "additionalContracts": [],
      "isFixedGasLimit": false
    },
    {
      "hash": "0x49a0cb1740e5aaff822ac452ecae5335efc43ba5fc60179c3abced193c33b9a4",
      "transactionType": "CALL",
      "contractName": "KiteAgentFiService",
      "contractAddress": "0x10e3399025e930da7b4d4be71181157ccee4e882",
      "function": "registerService(string,string,uint256,string)",
      "arguments": [
        "AgentFi Yield Optimizer",
        "/agents/yield_optimizer/execute",
        "15000",
        "Multi-protocol yield optimization across Hedera and Ethereum DeFi"
      ],
      "transaction": {
        "from": "0x96455c9b00d530bd0629b71b674298440328b1dd",
        "to": "0x10e3399025e930da7b4d4be71181157ccee4e882",
        "gas": "0x48946",
        "value": "0x0",
        "input": "0x499429c6000000000000000000000000000000000000000000000000000000000000008000000000000000000000000000000000000000000000000000000000000000c00000000000000000000000000000000000000000000000000000000000003a98000000000000000000000000000000000000000000000000000000000000010000000000000000000000000000000000000000000000000000000000000000174167656e744669205969656c64204f7074696d697a6572000000000000000000000000000000000000000000000000000000000000000000000000000000001f2f6167656e74732f7969656c645f6f7074696d697a65722f657865637574650000000000000000000000000000000000000000000000000000000000000000414d756c74692d70726f746f636f6c207969656c64206f7074696d697a6174696f6e206163726f73732048656465726120616e6420457468657265756d204465466900000000000000000000000000000000000000000000000000000000000000",
        "nonce": "0x2",
        "chainId": "0x940"
      },
      "additionalContracts": [],
      "isFixedGasLimit": false
    },
    {
      "hash": "0xa6415a157c0b4bd2e218bbd89b2509e353fb126b804f02b650796ad3d7ccc0e9",
      "transactionType": "CALL",
      "contractName": "KiteAgentFiService",
      "contractAddress": "0x10e3399025e930da7b4d4be71181157ccee4e882",
      "function": "registerService(string,string,uint256,string)",
      "arguments": [
        "AgentFi Risk Scorer",
        "/agents/risk_scorer/execute",
        "5000",
        "Deterministic portfolio risk scoring with volatility analysis"
      ],
      "transaction": {
        "from": "0x96455c9b00d530bd0629b71b674298440328b1dd",
        "to": "0x10e3399025e930da7b4d4be71181157ccee4e882",
        "gas": "0x41007",
        "value": "0x0",
        "input": "0x499429c6000000000000000000000000000000000000000000000000000000000000008000000000000000000000000000000000000000000000000000000000000000c00000000000000000000000000000000000000000000000000000000000001388000000000000000000000000000000000000000000000000000000000000010000000000000000000000000000000000000000000000000000000000000000134167656e744669205269736b2053636f72657200000000000000000000000000000000000000000000000000000000000000000000000000000000000000001b2f6167656e74732f7269736b5f73636f7265722f657865637574650000000000000000000000000000000000000000000000000000000000000000000000003d44657465726d696e697374696320706f7274666f6c696f207269736b2073636f72696e67207769746820766f6c6174696c69747920616e616c79736973000000",
        "nonce": "0x3",
        "chainId": "0x940"
      },
      "additionalContracts": [],
      "isFixedGasLimit": false
    }
  ],
  "receipts": [
    {
      "status": "0x1",
      "cumulativeGasUsed": "0x1418df",
      "logs": [],
      "logsBloom": "0x00000000000000000000000000000000000000000000000000000000000000000000000000000000000000000000000000000000000000000000000000000000000000000000000000000000000000000000000000000000000000000000000000000000000000000000000000000000000000000000000000000000000000000000000000000000000000000000000000000000000000000000000000000000000000000000000000000000000000000000000000000000000000000000000000000000000000000000000000000000000000000000000000000000000000000000000000000000000000000000000000000000000000000000000000000000",
      "type": "0x0",
      "transactionHash": "0x49a0cb1740e5aaff822ac452ecae5335efc43ba5fc60179c3abced193c33b9a4",
      "transactionIndex": "0x0",
      "blockHash": "0x0c460571f16c0837031e8ea010fa28fa0e2148c12b5b1d17d317cbc4f2b04179",
      "blockNumber": "0x130d2aa",
      "gasUsed": "0x1418df",
      "effectiveGasPrice": "0x9502f900",
      "from": "0x96455c9b00d530bd0629b71b674298440328b1dd",
      "to": null,
      "contractAddress": "0x10e3399025e930da7b4d4be71181157ccee4e882"
    },
    {
      "status": "0x1",
      "cumulativeGasUsed": "0x17fb2a",
      "logs": [
        {
          "address": "0x10e3399025e930da7b4d4be71181157ccee4e882",
          "topics": [
            "0xd1e38e2610bc0b364be40cfd3e9237cc9ef8aee37be4c4db188c823ad03f0312",
            "0x0000000000000000000000000000000000000000000000000000000000000000"
          ],
          "data": "0x00000000000000000000000000000000000000000000000000000000000000400000000000000000000000000000000000000000000000000000000000002710000000000000000000000000000000000000000000000000000000000000001a4167656e74466920506f7274666f6c696f20416e616c797a6572000000000000",
          "blockHash": "0x0c460571f16c0837031e8ea010fa28fa0e2148c12b5b1d17d317cbc4f2b04179",
          "blockNumber": "0x130d2aa",
          "transactionHash": "0xbd332f05c7542f5e771d76f4428b9c5e0f2501a63e3f041f08b28691a8c8a89e",
          "transactionIndex": "0x1",
          "logIndex": "0x0",
          "removed": false
        }
      ],
      "logsBloom": "0x00000000000000000000000000000010000010000000000000000001000000000000000000000000000000000000200000000000000000000000000000000000000000000000000000000000000000000000040000000000000000000000000000000000020000000000000000000800000000000000000000000000000000000000000000000000000000000000000000000000000000000000000000000001000000000000000000000000000000000000000000000000000000000000000000000000000000000000000000000000000000000000000000000000000020000000000000000000000000000000000000000000000000000000000000000000",
      "type": "0x0",
      "transactionHash": "0xbd332f05c7542f5e771d76f4428b9c5e0f2501a63e3f041f08b28691a8c8a89e",
      "transactionIndex": "0x1",
      "blockHash": "0x0c460571f16c0837031e8ea010fa28fa0e2148c12b5b1d17d317cbc4f2b04179",
      "blockNumber": "0x130d2aa",
      "gasUsed": "0x3e24b",
      "effectiveGasPrice": "0x9502f900",
      "from": "0x96455c9b00d530bd0629b71b674298440328b1dd",
      "to": "0x10e3399025e930da7b4d4be71181157ccee4e882",
      "contractAddress": null
    },
    {
      "status": "0x1",
      "cumulativeGasUsed": "0x1b43e9",
      "logs": [
        {
          "address": "0x10e3399025e930da7b4d4be71181157ccee4e882",
          "topics": [
            "0xd1e38e2610bc0b364be40cfd3e9237cc9ef8aee37be4c4db188c823ad03f0312",
            "0x0000000000000000000000000000000000000000000000000000000000000001"
          ],
          "data": "0x00000000000000000000000000000000000000000000000000000000000000400000000000000000000000000000000000000000000000000000000000003a9800000000000000000000000000000000000000000000000000000000000000174167656e744669205969656c64204f7074696d697a6572000000000000000000",
          "blockHash": "0x0c460571f16c0837031e8ea010fa28fa0e2148c12b5b1d17d317cbc4f2b04179",
          "blockNumber": "0x130d2aa",
          "transactionHash": "0x17eea0362f932ac43a1808d7a021a3bf678edea1e4860185ba92010eacab81ab",
          "transactionIndex": "0x2",
          "logIndex": "0x1",
          "removed": false
        }
      ],
      "logsBloom": "0x00000000000000000000000000000010000010000000000000000001000000000000000000000000000000000000200000000000000000000000000000040000000000000000000000000000000000000000040000040000000000000000000000000000000000000000000000000000000000000000000000000000000000000000000000000000000000000000000000000000000000000000000000000001000000000000000000000000000000000000000000000000000000000000000000000000000000000000000000000000000000000000000000000000000040000000000000000000000000000000000000000000000000000000000000000000",
      "type": "0x0",
      "transactionHash": "0x17eea0362f932ac43a1808d7a021a3bf678edea1e4860185ba92010eacab81ab",
      "transactionIndex": "0x2",
      "blockHash": "0x0c460571f16c0837031e8ea010fa28fa0e2148c12b5b1d17d317cbc4f2b04179",
      "blockNumber": "0x130d2aa",
      "gasUsed": "0x348bf",
      "effectiveGasPrice": "0x9502f900",
      "from": "0x96455c9b00d530bd0629b71b674298440328b1dd",
      "to": "0x10e3399025e930da7b4d4be71181157ccee4e882",
      "contractAddress": null
    },
    {
      "status": "0x1",
      "cumulativeGasUsed": "0x1e34e0",
      "logs": [
        {
          "address": "0x10e3399025e930da7b4d4be71181157ccee4e882",
          "topics": [
            "0xd1e38e2610bc0b364be40cfd3e9237cc9ef8aee37be4c4db188c823ad03f0312",
            "0x0000000000000000000000000000000000000000000000000000000000000002"
          ],
          "data": "0x0000000000000000000000000000000000000000000000000000000000000040000000000000000000000000000000000000000000000000000000000000138800000000000000000000000000000000000000000000000000000000000000134167656e744669205269736b2053636f72657200000000000000000000000000",
          "blockHash": "0x0c460571f16c0837031e8ea010fa28fa0e2148c12b5b1d17d317cbc4f2b04179",
          "blockNumber": "0x130d2aa",
          "transactionHash": "0xa6415a157c0b4bd2e218bbd89b2509e353fb126b804f02b650796ad3d7ccc0e9",
          "transactionIndex": "0x3",
          "logIndex": "0x2",
          "removed": false
        }
      ],
      "logsBloom": "0x04000000000000000000000000000010000010000000000000000001000000000000000000000000000000000000200000000000000000000000000000000000000000000000000000000000000000000000040000000000000000000000000000000000000000000000000000000000000000000000000000000000000000000000000000000000000000000000000000000000000000000000000000000001000000000000000000000100000000000000000000000000000000000000000000000000000000000000000000000000000000000000000000000000000000000000000000000000000000000000000000000000008000000000000000000000",
      "type": "0x0",
      "transactionHash": "0xa6415a157c0b4bd2e218bbd89b2509e353fb126b804f02b650796ad3d7ccc0e9",
      "transactionIndex": "0x3",
      "blockHash": "0x0c460571f16c0837031e8ea010fa28fa0e2148c12b5b1d17d317cbc4f2b04179",
      "blockNumber": "0x130d2aa",
      "gasUsed": "0x2f0f7",
      "effectiveGasPrice": "0x9502f900",
      "from": "0x96455c9b00d530bd0629b71b674298440328b1dd",
      "to": "0x10e3399025e930da7b4d4be71181157ccee4e882",
      "contractAddress": null
    }
  ],
  "libraries": [],
  "pending": [],
  "returns": {},
  "timestamp": 1771574778939,
  "chain": 2368,
  "commit": "bec6c28"
}