{
  "transactions": [
    {
      "hash": "0xba7a3d40c0aded571f36088ce35aebb511a86b9a3a7d18065a9b074e75653022",
      "transactionType": "CALL",
      "contractName": null,
      "contractAddress": "0xa259e6d0a4f740ad8879ea433ba56b1c5a9e1a5b",
      "function": "setHederaAccounts(uint256,string,string)",
      "arguments": [
        "0",
        "0.0.7977799",
        "0.0.7973940"
      ],
      "transaction": {
        "from": "0x96455c9b00d530bd0629b71b674298440328b1dd",
        "to": "0xa259e6d0a4f740ad8879ea433ba56b1c5a9e1a5b",
        "gas": "0x1a7a1",
        "value": "0x0",
        "input": "0xea564f290000000000000000000000000000000000000000000000000000000000000000000000000000000000000000000000000000000000000000000000000000006000000000000000000000000000000000000000000000000000000000000000a0000000000000000000000000000000000000000000000000000000000000000b302e302e37393737373939000000000000000000000000000000000000000000000000000000000000000000000000000000000000000000000000000000000b302e302e37393733393430000000000000000000000000000000000000000000",
        "nonce": "0x1f",
        "chainId": "0x40da"
      },
      "additionalContracts": [],
      "isFixedGasLimit": false
    },
    {
      "hash": "0xd1b8b11963a4d9953bfe14658f28362c7e1c761d00b5f315ddfd2c4856669c80",
      "transactionType": "CALL",
      "contractName": null,
      "contractAddress": "0xa259e6d0a4f740ad8879ea433ba56b1c5a9e1a5b",
      "function": "setX402Config(uint256,(bool,uint256,uint256,uint256,bool))",
      "arguments": [
        "0",
        "(true, 100, 10000, 500, true)"
      ],
      "transaction": {
        "from": "0x96455c9b00d530bd0629b71b674298440328b1dd",
        "to": "0xa259e6d0a4f740ad8879ea433ba56b1c5a9e1a5b",
        "gas": "0x311d4",
        "value": "0x0",
        "input": "0x016c3841000000000000000000000000000000000000000000000000000000000000000000000000000000000000000000000000000000000000000000000000000000010000000000000000000000000000000000000000000000000000000000000064000000000000000000000000000000000000000000000000000000000000271000000000000000000000000000000000000000000000000000000000000001f40000000000000000000000000000000000000000000000000000000000000001",
        "nonce": "0x20",
        "chainId": "0x40da"
      },
      "additionalContracts": [],
      "isFixedGasLimit": false
    },
    {
      "hash": "0xd88a00acaee6e974c240a2f4ef25f28df7b4b3fc51a8bd33218436496d1c867a",
      "transactionType": "CALL",
      "contractName": null,
      "contractAddress": "0xa259e6d0a4f740ad8879ea433ba56b1c5a9e1a5b",
      "function": "setHederaAccounts(uint256,string,string)",
      "arguments": [
        "1",
        "0.0.7977811",
        "0.0.7973940"
      ],
      "transaction": {
        "from": "0x96455c9b00d530bd0629b71b674298440328b1dd",
        "to": "0xa259e6d0a4f740ad8879ea433ba56b1c5a9e1a5b",
        "gas": "0x1a7b2",
        "value": "0x0",
        "input": "0xea564f290000000000000000000000000000000000000000000000000000000000000001000000000000000000000000000000000000000000000000000000000000006000000000000000000000000000000000000000000000000000000000000000a0000000000000000000000000000000000000000000000000000000000000000b302e302e37393737383131000000000000000000000000000000000000000000000000000000000000000000000000000000000000000000000000000000000b302e302e37393733393430000000000000000000000000000000000000000000",
        "nonce": "0x21",
        "chainId": "0x40da"
      },
      "additionalContracts": [],
      "isFixedGasLimit": false
    },
    {
      "hash": "0xc9ea8494ed2b89eb22bc1c12b98ace752a67ad982290c8fe70cc641f9c811bf9",
      "transactionType": "CALL",
      "contractName": null,
      "contractAddress": "0xa259e6d0a4f740ad8879ea433ba56b1c5a9e1a5b",
      "function": "setX402Config(uint256,(bool,uint256,uint256,uint256,bool))",
      "arguments": [
        "1",
        "(true, 150, 15000, 300, true)"
      ],
      "transaction": {
        "from": "0x96455c9b00d530bd0629b71b674298440328b1dd",
        "to": "0xa259e6d0a4f740ad8879ea433ba56b1c5a9e1a5b",
        "gas": "0x34020",
        "value": "0x0",
        "input": "0x016c38410000000000000000000000000000000000000000000000000000000000000001000000000000000000000000000000000000000000000000000000000000000100000000000000000000000000000000000000000000000000000000000000960000000000000000000000000000000000000000000000000000000000003a98000000000000000000000000000000000000000000000000000000000000012c0000000000000000000000000000000000000000000000000000000000000001",
        "nonce": "0x22",
        "chainId": "0x40da"
      },
      "additionalContracts": [],
      "isFixedGasLimit": false
    },
    {
      "hash": "0xcbf38efbbfe415e3a9007cf3c7ca1924d8979a80f5733a2c44636cd56b94b072",
      "transactionType": "CALL",
      "contractName": null,
      "contractAddress": "0xa259e6d0a4f740ad8879ea433ba56b1c5a9e1a5b",
      "function": "setHederaAccounts(uint256,string,string)",
      "arguments": [
        "2",
        "0.0.7977819",
        "0.0.7973940"
      ],
      "transaction": {
        "from": "0x96455c9b00d530bd0629b71b674298440328b1dd",
        "to": "0xa259e6d0a4f740ad8879ea433ba56b1c5a9e1a5b",
        "gas": "0x1a7b2",
        "value": "0x0",
        "input": "0xea564f290000000000000000000000000000000000000000000000000000000000000002000000000000000000000000000000000000000000000000000000000000006000000000000000000000000000000000000000000000000000000000000000a0000000000000000000000000000000000000000000000000000000000000000b302e302e37393737383139000000000000000000000000000000000000000000000000000000000000000000000000000000000000000000000000000000000b302e302e37393733393430000000000000000000000000000000000000000000",
        "nonce": "0x23",
        "chainId": "0x40da"
      },
      "additionalContracts": [],
      "isFixedGasLimit": false
    },
    {
      "hash": "0x9eac9d910911892ab22e86396f44523d78f11c30213a293b9059059b6ab059f3",
      "transactionType": "CALL",
      "contractName": null,
      "contractAddress": "0xa259e6d0a4f740ad8879ea433ba56b1c5a9e1a5b",
      "function": "setX402Config(uint256,(bool,uint256,uint256,uint256,bool))",
      "arguments": [
        "2",
        "(true, 50, 5000, 200, false)"
      ],
      "transaction": {
        "from": "0x96455c9b00d530bd0629b71b674298440328b1dd",
        "to": "0xa259e6d0a4f740ad8879ea433ba56b1c5a9e1a5b",
        "gas": "0x2a665",
        "value": "0x0",
        "input": "0x016c3841000000000000000000000000000000000000000000000000000000000000000200000000000000000000000000000000000000000000000000000000000000010000000000000000000000000000000000000000000000000000000000000032000000000000000000000000000000000000000000000000000000000000138800000000000000000000000000000000000000000000000000000000000000c80000000000000000000000000000000000000000000000000000000000000000",
        "nonce": "0x24",
        "chainId": "0x40da"
      },
      "additionalContracts": [],
      "isFixedGasLimit": false
    }
  ],
  "receipts": [
    {
      "status": "0x1",
      "cumulativeGasUsed": "0x152e7",
      "logs": [
        {
          "address": "0xa259e6d0a4f740ad8879ea433ba56b1c5a9e1a5b",
          "topics": [
            "0xd436dddde84efbfa494db342b32134a0127343ff7d5dcfad3c44af1f3745f188",
            "0x0000000000000000000000000000000000000000000000000000000000000000"
          ],
          "data": "0x00000000000000000000000000000000000000000000000000000000000000400000000000000000000000000000000000000000000000000000000000000080000000000000000000000000000000000000000000000000000000000000000b302e302e37393737373939000000000000000000000000000000000000000000000000000000000000000000000000000000000000000000000000000000000b302e302e37393733393430000000000000000000000000000000000000000000",
          "blockHash": "0x3cb317927b1be77907e10424b57fe7c95ce16dfbc6ec0e48af4d8f1b26cdc898",
          "blockNumber": "0x1414123",
          "blockTimestamp": "0x0",
          "transactionHash": "0xd1b8b11963a4d9953bfe14658f28362c7e1c761d00b5f315ddfd2c4856669c80",
          "transactionIndex": "0x0",
          "logIndex": "0x0",
          "removed": false
        }
      ],
      "logsBloom": "0x00000000000000000000000000000000000000000000000000000800000000000000000000000000000000000000000000000000000000000000000000000000000000000000000000000000000000000000000000000000000400000000000000000000020000000000000000000800000000000000000000000000000000000000000000000000000000000000000000000000000000000000000000000000000000000000000000000000000000000000080000000000000000000000000000000000000000000000000000000000000080000000000000000000000020000000000000000008000000000000000002000000000000000000000000000000",
      "type": "0x0",
      "transactionHash": "0xd1b8b11963a4d9953bfe14658f28362c7e1c761d00b5f315ddfd2c4856669c80",
      "transactionIndex": "0x0",
      "blockHash": "0x3cb317927b1be77907e10424b57fe7c95ce16dfbc6ec0e48af4d8f1b26cdc898",
      "blockNumber": "0x1414123",
      "gasUsed": "0x152e7",
      "effectiveGasPrice": "0x9502f900",
      "from": "0x96455c9b00d530bd0629b71b674298440328b1dd",
      "to": "0xa259e6d0a4f740ad8879ea433ba56b1c5a9e1a5b",
      "contractAddress": null
    },
    {
      "status": "0x1",
      "cumulativeGasUsed": "0x3c790",
      "logs": [
        {
          "address": "0xa259e6d0a4f740ad8879ea433ba56b1c5a9e1a5b",
          "topics": [
            "0x3199276c3ee8cc8e4a859be3f97b1aa86bac139c4d1128ac78528a4d9a03ad1f",
            "0x0000000000000000000000000000000000000000000000000000000000000000"
          ],
          "data": "0x00000000000000000000000000000000000000000000000000000000000000010000000000000000000000000000000000000000000000000000000000000064000000000000000000000000000000000000000000000000000000000000271000000000000000000000000000000000000000000000000000000000000001f40000000000000000000000000000000000000000000000000000000000000001",
          "blockHash": "0x3cb317927b1be77907e10424b57fe7c95ce16dfbc6ec0e48af4d8f1b26cdc898",
          "blockNumber": "0x1414123",
          "blockTimestamp": "0x0",
          "transactionHash": "0xba7a3d40c0aded571f36088ce35aebb511a86b9a3a7d18065a9b074e75653022",
          "transactionIndex": "0x1",
          "logIndex": "0x1",
          "removed": false
        }
      ],
      "logsBloom": "0x00000000000000000000000000000000000000000000000000000800000000000000000000000000000008000000000000000000000010000000000000000000000000000000000000000000000000000000000020000000000000000000000000000000020000000000000000000800000000000000000000000000000000000000000000000000000000000000000000000000000000000000000000000000000000000000000000000000000000000000000000000000000000000000000000000000000000000000000000000000000080000000000000000000000020000000000000000000000000000000000002000000000000000000000000000000",
      "type": "0x0",
      "transactionHash": "0xba7a3d40c0aded571f36088ce35aebb511a86b9a3a7d18065a9b074e75653022",
      "transactionIndex": "0x1",
      "blockHash": "0x3cb317927b1be77907e10424b57fe7c95ce16dfbc6ec0e48af4d8f1b26cdc898",
      "blockNumber": "0x1414123",
      "gasUsed": "0x274a9",
      "effectiveGasPrice": "0x9502f900",
      "from": "0x96455c9b00d530bd0629b71b674298440328b1dd",
      "to": "0xa259e6d0a4f740ad8879ea433ba56b1c5a9e1a5b",
      "contractAddress": null
    },
    {
      "status": "0x1",
      "cumulativeGasUsed": "0x51a84",
      "logs": [
        {
          "address": "0xa259e6d0a4f740ad8879ea433ba56b1c5a9e1a5b",
          "topics": [
            "0xd436dddde84efbfa494db342b32134a0127343ff7d5dcfad3c44af1f3745f188",
            "0x0000000000000000000000000000000000000000000000000000000000000001"
          ],
          "data": "0x00000000000000000000000000000000000000000000000000000000000000400000000000000000000000000000000000000000000000000000000000000080000000000000000000000000000000000000000000000000000000000000000b302e302e37393737383131000000000000000000000000000000000000000000000000000000000000000000000000000000000000000000000000000000000b302e302e37393733393430000000000000000000000000000000000000000000",
          "blockHash": "0x3cb317927b1be77907e10424b57fe7c95ce16dfbc6ec0e48af4d8f1b26cdc898",
          "blockNumber": "0x1414123",
          "blockTimestamp": "0x0",
          "transactionHash": "0xc9ea8494ed2b89eb22bc1c12b98ace752a67ad982290c8fe70cc641f9c811bf9",
          "transactionIndex": "0x2",
          "logIndex": "0x2",
          "removed": false
        }
      ],
      "logsBloom": "0x00000000000000000000000000000000000000000000000000000800000000000000000000000000000000000000000000000000000000000000000000040000000000000000000000000000000000000000000000040000000400000000000000000000000000000000000000000000000000000000000000000000000000000000000000000000000000000000000000000000000000000000000000000000000000000000000000000000000000000000080000000000000000000000000000000000000000000000000000000000000080000000000000000000000040000000000000000008000000000000000002000000000000000000000000000000",
      "type": "0x0",
      "transactionHash": "0xc9ea8494ed2b89eb22bc1c12b98ace752a67ad982290c8fe70cc641f9c811bf9",
      "transactionIndex": "0x2",
      "blockHash": "0x3cb317927b1be77907e10424b57fe7c95ce16dfbc6ec0e48af4d8f1b26cdc898",
      "blockNumber": "0x1414123",
      "gasUsed": "0x152f4",
      "effectiveGasPrice": "0x9502f900",
      "from": "0x96455c9b00d530bd0629b71b674298440328b1dd",
      "to": "0xa259e6d0a4f740ad8879ea433ba56b1c5a9e1a5b",
      "contractAddress": null
    },
    {
      "status": "0x1",
      "cumulativeGasUsed": "0x7b437",
      "logs": [
        {
          "address": "0xa259e6d0a4f740ad8879ea433ba56b1c5a9e1a5b",
          "topics": [
            "0x3199276c3ee8cc8e4a859be3f97b1aa86bac139c4d1128ac78528a4d9a03ad1f",
            "0x0000000000000000000000000000000000000000000000000000000000000001"
          ],
          "data": "0x000000000000000000000000000000000000000000000000000000000000000100000000000000000000000000000000000000000000000000000000000000960000000000000000000000000000000000000000000000000000000000003a98000000000000000000000000000000000000000000000000000000000000012c0000000000000000000000000000000000000000000000000000000000000001",
          "blockHash": "0x3cb317927b1be77907e10424b57fe7c95ce16dfbc6ec0e48af4d8f1b26cdc898",
          "blockNumber": "0x1414123",
          "blockTimestamp": "0x0",
          "transactionHash": "0xd88a00acaee6e974c240a2f4ef25f28df7b4b3fc51a8bd33218436496d1c867a",
          "transactionIndex": "0x3",
          "logIndex": "0x3",
          "removed": false
        }
      ],
      "logsBloom": "0x00000000000000000000000000000000000000000000000000000800000000000000000000000000000008000000000000000000000010000000000000040000000000000000000000000000000000000000000020040000000000000000000000000000000000000000000000000000000000000000000000000000000000000000000000000000000000000000000000000000000000000000000000000000000000000000000000000000000000000000000000000000000000000000000000000000000000000000000000000000000080000000000000000000000040000000000000000000000000000000000002000000000000000000000000000000",
      "type": "0x0",
      "transactionHash": "0xd88a00acaee6e974c240a2f4ef25f28df7b4b3fc51a8bd33218436496d1c867a",
      "transactionIndex": "0x3",
      "blockHash": "0x3cb317927b1be77907e10424b57fe7c95ce16dfbc6ec0e48af4d8f1b26cdc898",
      "blockNumber": "0x1414123",
      "gasUsed": "0x299b3",
      "effectiveGasPrice": "0x9502f900",
      "from": "0x96455c9b00d530bd0629b71b674298440328b1dd",
      "to": "0xa259e6d0a4f740ad8879ea433ba56b1c5a9e1a5b",
      "contractAddress": null
    },
    {
      "status": "0x1",
      "cumulativeGasUsed": "0x9072b",
      "logs": [
        {
          "address": "0xa259e6d0a4f740ad8879ea433ba56b1c5a9e1a5b",
          "topics": [
            "0xd436dddde84efbfa494db342b32134a0127343ff7d5dcfad3c44af1f3745f188",
            "0x0000000000000000000000000000000000000000000000000000000000000002"
          ],
          "data": "0x00000000000000000000000000000000000000000000000000000000000000400000000000000000000000000000000000000000000000000000000000000080000000000000000000000000000000000000000000000000000000000000000b302e302e37393737383139000000000000000000000000000000000000000000000000000000000000000000000000000000000000000000000000000000000b302e302e37393733393430000000000000000000000000000000000000000000",
          "blockHash": "0x3cb317927b1be77907e10424b57fe7c95ce16dfbc6ec0e48af4d8f1b26cdc898",
          "blockNumber": "0x1414123",
          "blockTimestamp": "0x0",
          "transactionHash": "0xcbf38efbbfe415e3a9007cf3c7ca1924d8979a80f5733a2c44636cd56b94b072",
          "transactionIndex": "0x4",
          "logIndex": "0x4",
          "removed": false
        }
      ],
      "logsBloom": "0x04000000000000000000000000000000000000000000000000000800000000000000000000000000000000000000000000000000000000000000000000000000000000000000000000000000000000000000000000000000000400000000000000000000000000000000000000000000000000000000000000000000000000000000000000000000000000000000000000000000000000000000000000000000000000000000000000000100000000000000080000000000000000000000000000000000000000000000000000000000000080000000000000000000000000000000000000000008000000000000000002000000008000000000000000000000",
      "type": "0x0",
      "transactionHash": "0xcbf38efbbfe415e3a9007cf3c7ca1924d8979a80f5733a2c44636cd56b94b072",
      "transactionIndex": "0x4",
      "blockHash": "0x3cb317927b1be77907e10424b57fe7c95ce16dfbc6ec0e48af4d8f1b26cdc898",
      "blockNumber": "0x1414123",
      "gasUsed": "0x152f4",
      "effectiveGasPrice": "0x9502f900",
      "from": "0x96455c9b00d530bd0629b71b674298440328b1dd",
      "to": "0xa259e6d0a4f740ad8879ea433ba56b1c5a9e1a5b",
      "contractAddress": null
    },
    {
      "status": "0x1",
      "cumulativeGasUsed": "0xb25e2",
      "logs": [
        {
          "address": "0xa259e6d0a4f740ad8879ea433ba56b1c5a9e1a5b",
          "topics": [
            "0x3199276c3ee8cc8e4a859be3f97b1aa86bac139c4d1128ac78528a4d9a03ad1f",
            "0x0000000000000000000000000000000000000000000000000000000000000002"
          ],
          "data": "0x00000000000000000000000000000000000000000000000000000000000000010000000000000000000000000000000000000000000000000000000000000032000000000000000000000000000000000000000000000000000000000000138800000000000000000000000000000000000000000000000000000000000000c80000000000000000000000000000000000000000000000000000000000000000",
          "blockHash": "0x3cb317927b1be77907e10424b57fe7c95ce16dfbc6ec0e48af4d8f1b26cdc898",
          "blockNumber": "0x1414123",
          "blockTimestamp": "0x0",
          "transactionHash": "0x9eac9d910911892ab22e86396f44523d78f11c30213a293b9059059b6ab059f3",
          "transactionIndex": "0x5",
          "logIndex": "0x5",
          "removed": false
        }
      ],
      "logsBloom": "0x04000000000000000000000000000000000000000000000000000800000000000000000000000000000008000000000000000000000010000000000000000000000000000000000000000000000000000000000020000000000000000000000000000000000000000000000000000000000000000000000000000000000000000000000000000000000000000000000000000000000000000000000000000000000000000000000000000100000000000000000000000000000000000000000000000000000000000000000000000000000080000000000000000000000000000000000000000000000000000000000002000000008000000000000000000000",
      "type": "0x0",
      "transactionHash": "0x9eac9d910911892ab22e86396f44523d78f11c30213a293b9059059b6ab059f3",
      "transactionIndex": "0x5",
      "blockHash": "0x3cb317927b1be77907e10424b57fe7c95ce16dfbc6ec0e48af4d8f1b26cdc898",
      "blockNumber": "0x1414123",
      "gasUsed": "0x21eb7",
      "effectiveGasPrice": "0x9502f900",
      "from": "0x96455c9b00d530bd0629b71b674298440328b1dd",
      "to": "0xa259e6d0a4f740ad8879ea433ba56b1c5a9e1a5b",
      "contractAddress": null
    }
  ],
  "libraries": [],
  "pending": [],
  "returns": {},
  "timestamp": 1771574762646,
  "chain": 16602,
  "commit": "bec6c28"
}