{
  "transactions": [
    {
      "hash": "0xba7a3d40c0aded571f36088ce35aebb511a86b9a3a7d18065a9b074e75653022",
      "transactionType": "CALL",
      "contractName": null,
      "contractAddress": "0xa259e6d0a4f740ad8879ea433ba56b1c5a9e1a5b",
      "function": "setHederaAccounts(uint256,string,string)",
      "arguments": [
        "0",
        "0.0.7977799",
        "0.0.7973940"
      ],
      "transaction": {
        "from": "0x96455c9b00d530bd0629b71b674298440328b1dd",
        "to": "0xa259e6d0a4f740ad8879ea433ba56b1c5a9e1a5b",
        "gas": "0x1a7a1",
        "value": "0x0",
        "input": "0xea564f290000000000000000000000000000000000000000000000000000000000000000000000000000000000000000000000000000000000000000000000000000006000000000000000000000000000000000000000000000000000000000000000a0000000000000000000000000000000000000000000000000000000000000000b302e302e37393737373939000000000000000000000000000000000000000000000000000000000000000000000000000000000000000000000000000000000b302e302e37393733393430000000000000000000000000000000000000000000",
        "nonce": "0x1f",
        "chainId": "0x40da"
      },
      "additionalContracts": [],
      "isFixedGasLimit": false
    },
    {
      "hash": "0xd1b8b11963a4d9953bfe14658f28362c7e1c761d00b5f315ddfd2c4856669c80",
      "transactionType": "CALL",
      "contractName": null,
      "contractAddress": "0xa259e6d0a4f740ad8879ea433ba56b1c5a9e1a5b",
      "function": "setX402Config(uint256,(bool,uint256,uint256,uint256,bool))",
      "arguments": [
        "0",
        "(true, 100, 10000, 500, true)"
      ],
      "transaction": {
        "from": "0x96455c9b00d530bd0629b71b674298440328b1dd",
        "to": "0xa259e6d0a4f740ad8879ea433ba56b1c5a9e1a5b",
        "gas": "0x311d4",
        "value": "0x0",
        "input": "0x016c3841000000000000000000000000000000000000000000000000000000000000000000000000000000000000000000000000000000000000000000000000000000010000000000000000000000000000000000000000000000000000000000000064000000000000000000000000000000000000000000000000000000000000271000000000000000000000000000000000000000000000000000000000000001f40000000000000000000000000000000000000000000000000000000000000001",
        "nonce": "0x20",
        "chainId": "0x40da"
      },
      "additionalContracts": [],
      "isFixedGasLimit": false
    },
    {
      "hash": "0xd88a00acaee6e974c240a2f4ef25f28df7b4b3fc51a8bd33218436496d1c867a",
      "transactionType": "CALL",
      "contractName": null,
      "contractAddress": "0xa259e6d0a4f740ad8879ea433ba56b1c5a9e1a5b",
      "function": "setHederaAccounts(uint256,string,string)",
      "arguments": [
        "1",
        "0.0.7977811",
        "0.0.7973940"
      ],
      "transaction": {
        "from": "0x96455c9b00d530bd0629b71b674298440328b1dd",
        "to": "0xa259e6d0a4f740ad8879ea433ba56b1c5a9e1a5b",
        "gas": "0x1a7b2",
        "value": "0x0",
        "input": "0xea564f290000000000000000000000000000000000000000000000000000000000000001000000000000000000000000000000000000000000000000000000000000006000000000000000000000000000000000000000000000000000000000000000a0000000000000000000000000000000000000000000000000000000000000000b302e302e37393737383131000000000000000000000000000000000000000000000000000000000000000000000000000000000000000000000000000000000b302e302e37393733393430000000000000000000000000000000000000000000",
        "nonce": "0x21",
        "chainId": "0x40da"
      },
      "additionalContracts": [],
      "isFixedGasLimit": false
    },
    {
      "hash": "0xc9ea8494ed2b89eb22bc1c12b98ace752a67ad982290c8fe70cc641f9c811bf9",
      "transactionType": "CALL",
      "contractName": null,
      "contractAddress": "0xa259e6d0a4f740ad8879ea433ba56b1c5a9e1a5b",
      "function": "setX402Config(uint256,(bool,uint256,uint256,uint256,bool))",
      "arguments": [
        "1",
        "(true, 150, 15000, 300, true)"
      ],
      "transaction": {
        "from": "0x96455c9b00d530bd0629b71b674298440328b1dd",
        "to": "0xa259e6d0a4f740ad8879ea433ba56b1c5a9e1a5b",
        "gas": "0x34020",
        "value": "0x0",
        "input": "0x016c38410000000000000000000000000000000000000000000000000000000000000001000000000000000000000000000000000000000000000000000000000000000100000000000000000000000000000000000000000000000000000000000000960000000000000000000000000000000000000000000000000000000000003a98000000000000000000000000000000000000000000000000000000000000012c0000000000000000000000000000000000000000000000000000000000000001",
        "nonce": "0x22",
        "chainId": "0x40da"
      },
      "additionalContracts": [],
      "isFixedGasLimit": false
    },
    {
      "hash": "0xcbf38efbbfe415e3a9007cf3c7ca1924d8979a80f5733a2c44636cd56b94b072",
      "transactionType": "CALL",
      "contractName": null,
      "contractAddress": "0xa259e6d0a4f740ad8879ea433ba56b1c5a9e1a5b",
      "function": "setHederaAccounts(uint256,string,string)",
      "arguments": [
        "2",
        "0.0.7977819",
        "0.0.7973940"
      ],
      "transaction": {
        "from": "0x96455c9b00d530bd0629b71b674298440328b1dd",
        "to": "0xa259e6d0a4f740ad8879ea433ba56b1c5a9e1a5b",
        "gas": "0x1a7b2",
        "value": "0x0",
        "input": "0xea564f290000000000000000000000000000000000000000000000000000000000000002000000000000000000000000000000000000000000000000000000000000006000000000000000000000000000000000000000000000000000000000000000a0000000000000000000000000000000000000000000000000000000000000000b302e302e37393737383139000000000000000000000000000000000000000000000000000000000000000000000000000000000000000000000000000000000b302e302e37393733393430000000000000000000000000000000000000000000",
        "nonce": "0x23",
        "chainId": "0x40da"
      },
      "additionalContracts": [],
      "isFixedGasLimit": false
    },
    {
      "hash": "0x9eac9d910911892ab22e86396f44523d78f11c30213a293b9059059b6ab059f3",
      "transactionType": "CALL",
      "contractName": null,
      "contractAddress": "0xa259e6d0a4f740ad8879ea433ba56b1c5a9e1a5b",
      "function": "setX402Config(uint256,(bool,uint256,uint256,uint256,bool))",
      "arguments": [
        "2",
        "(true, 50, 5000, 200, false)"
      ],
      "transaction": {
        "from": "0x96455c9b00d530bd0629b71b674298440328b1dd",
        "to": "0xa259e6d0a4f740ad8879ea433ba56b1c5a9e1a5b",
        "gas": "0x2a665",
        "value": "0x0",
        "input": "0x016c3841000000000000000000000000000000000000000000000000000000000000000200000000000000000000000000000000000000000000000000000000000000010000000000000000000000000000000000000000000000000000000000000032000000000000000000000000000000000000000000000000000000000000138800000000000000000000000000000000000000000000000000000000000000c80000000000000000000000000000000000000000000000000000000000000000",
        "nonce": "0x24",
        "chainId": "0x40da"
      },
      "additionalContracts": [],
      "isFixedGasLimit": false
    }
  ],
  "receipts": [],
  "libraries": [],
  "pending": [
    "0xba7a3d40c0aded571f36088ce35aebb511a86b9a3a7d18065a9b074e75653022",
    "0xd1b8b11963a4d9953bfe14658f28362c7e1c761d00b5f315ddfd2c4856669c80",
    "0xd88a00acaee6e974c240a2f4ef25f28df7b4b3fc51a8bd33218436496d1c867a",
    "0xc9ea8494ed2b89eb22bc1c12b98ace752a67ad982290c8fe70cc641f9c811bf9",
    "0xcbf38efbbfe415e3a9007cf3c7ca1924d8979a80f5733a2c44636cd56b94b072",
    "0x9eac9d910911892ab22e86396f44523d78f11c30213a293b9059059b6ab059f3"
  ],
  "returns": {},
  "timestamp": 1771574745508,
  "chain": 16602,
  "commit": "bec6c28"
}