{
  "transactions": [
    {
      "hash": "0xe9c41a27b938cdb7e1221726992b60c1b0552f75f78e8447ed9c6a8e47fd3109",
      "transactionType": "CALL",
      "contractName": null,
      "contractAddress": "0xdcd2e9b068913fcf0c80ff5da070b243df091efe",
      "function": "mint(address,string,(string,string,string,uint256),bytes32,string,bytes)",
      "arguments": [
        "0x96455C9b00D530BD0629b71B674298440328b1Dd",
        "https://indexer-storage-testnet-turbo.0g.ai/file/PLACEHOLDER_0",
        "(AgentFi Portfolio Analyzer, Autonomous DeFi portfolio analysis with real-time CoinGecko data, [\\\"portfolio_analysis\\\",\\\"token_tracking\\\",\\\"allocation_report\\\",\\\"real_time_prices\\\",\\\"wallet_balance\\\"], 1000000000000000)",
        "0x3f889c162fad97973bd7cc6f520389f359c5257e2fb54d171a6009f26b398106",
        "0g://encrypted/portfolio-analyzer-v2",
        "0x7365616c65642d6b65792d706f7274666f6c696f2d7632"
      ],
      "transaction": {
        "from": "0x96455c9b00d530bd0629b71b674298440328b1dd",
        "to": "0xdcd2e9b068913fcf0c80ff5da070b243df091efe",
        "gas": "0xabdef",
        "value": "0x0",
        "input": "0x45d0781c00000000000000000000000096455c9b00d530bd0629b71b674298440328b1dd00000000000000000000000000000000000000000000000000000000000000c000000000000000000000000000000000000000000000000000000000000001203f889c162fad97973bd7cc6f520389f359c5257e2fb54d171a6009f26b39810600000000000000000000000000000000000000000000000000000000000002c00000000000000000000000000000000000000000000000000000000000000320000000000000000000000000000000000000000000000000000000000000003e68747470733a2f2f696e64657865722d73746f726167652d746573746e65742d747572626f2e30672e61692f66696c652f504c414345484f4c4445525f300000000000000000000000000000000000000000000000000000000000000000008000000000000000000000000000000000000000000000000000000000000000c0000000000000000000000000000000000000000000000000000000000000012000000000000000000000000000000000000000000000000000038d7ea4c68000000000000000000000000000000000000000000000000000000000000000001a4167656e74466920506f7274666f6c696f20416e616c797a657200000000000000000000000000000000000000000000000000000000000000000000000000404175746f6e6f6d6f7573204465466920706f7274666f6c696f20616e616c797369732077697468207265616c2d74696d6520436f696e4765636b6f2064617461000000000000000000000000000000000000000000000000000000000000005f5b22706f7274666f6c696f5f616e616c79736973222c22746f6b656e5f747261636b696e67222c22616c6c6f636174696f6e5f7265706f7274222c227265616c5f74696d655f707269636573222c2277616c6c65745f62616c616e6365225d00000000000000000000000000000000000000000000000000000000000000002430673a2f2f656e637279707465642f706f7274666f6c696f2d616e616c797a65722d76320000000000000000000000000000000000000000000000000000000000000000000000000000000000000000000000000000000000000000000000177365616c65642d6b65792d706f7274666f6c696f2d7632000000000000000000",
        "nonce": "0x29",
        "chainId": "0x40da"
      },
      "additionalContracts": [],
      "isFixedGasLimit": false
    },
    {
      "hash": "0x0f50f90f265dffef1969ed6e4a3760a2c6dc831527807a190142c178aea42297",
      "transactionType": "CALL",
      "contractName": null,
      "contractAddress": "0xdcd2e9b068913fcf0c80ff5da070b243df091efe",
      "function": "mint(address,string,(string,string,string,uint256),bytes32,string,bytes)",
      "arguments": [
        "0x96455C9b00D530BD0629b71B674298440328b1Dd",
        "https://indexer-storage-testnet-turbo.0g.ai/file/PLACEHOLDER_1",
        "(AgentFi Yield Optimizer, Multi-protocol yield optimization - SaucerSwap, Bonzo Finance, DeFi Llama, [\\\"yield_optimization\\\",\\\"defi_yields\\\",\\\"saucerswap\\\",\\\"bonzo_finance\\\",\\\"strategy_recommendation\\\"], 1000000000000000)",
        "0x2aa9239429308e7de89e780d6a89e93f15cfa1bb2bbe2f95ee6ba1f3700bcc9c",
        "0g://encrypted/yield-optimizer-v2",
        "0x7365616c65642d6b65792d7969656c642d7632"
      ],
      "transaction": {
        "from": "0x96455c9b00d530bd0629b71b674298440328b1dd",
        "to": "0xdcd2e9b068913fcf0c80ff5da070b243df091efe",
        "gas": "0xa7dd3",
        "value": "0x0",
        "input": "0x45d0781c00000000000000000000000096455c9b00d530bd0629b71b674298440328b1dd00000000000000000000000000000000000000000000000000000000000000c000000000000000000000000000000000000000000000000000000000000001202aa9239429308e7de89e780d6a89e93f15cfa1bb2bbe2f95ee6ba1f3700bcc9c00000000000000000000000000000000000000000000000000000000000002e00000000000000000000000000000000000000000000000000000000000000340000000000000000000000000000000000000000000000000000000000000003e68747470733a2f2f696e64657865722d73746f726167652d746573746e65742d747572626f2e30672e61692f66696c652f504c414345484f4c4445525f310000000000000000000000000000000000000000000000000000000000000000008000000000000000000000000000000000000000000000000000000000000000c0000000000000000000000000000000000000000000000000000000000000014000000000000000000000000000000000000000000000000000038d7ea4c6800000000000000000000000000000000000000000000000000000000000000000174167656e744669205969656c64204f7074696d697a657200000000000000000000000000000000000000000000000000000000000000000000000000000000494d756c74692d70726f746f636f6c207969656c64206f7074696d697a6174696f6e202d20536175636572537761702c20426f6e7a6f2046696e616e63652c2044654669204c6c616d610000000000000000000000000000000000000000000000000000000000000000000000000000000000000000000000000000000000005b5b227969656c645f6f7074696d697a6174696f6e222c22646566695f7969656c6473222c2273617563657273776170222c22626f6e7a6f5f66696e616e6365222c2273747261746567795f7265636f6d6d656e646174696f6e225d0000000000000000000000000000000000000000000000000000000000000000000000002130673a2f2f656e637279707465642f7969656c642d6f7074696d697a65722d76320000000000000000000000000000000000000000000000000000000000000000000000000000000000000000000000000000000000000000000000000000137365616c65642d6b65792d7969656c642d763200000000000000000000000000",
        "nonce": "0x2a",
        "chainId": "0x40da"
      },
      "additionalContracts": [],
      "isFixedGasLimit": false
    },
    {
      "hash": "0x5a9dcecfb71c23131d647c42229646853fdce73074a6732f0fdebd012506cb82",
      "transactionType": "CALL",
      "contractName": null,
      "contractAddress": "0xdcd2e9b068913fcf0c80ff5da070b243df091efe",
      "function": "mint(address,string,(string,string,string,uint256),bytes32,string,bytes)",
      "arguments": [
        "0x96455C9b00D530BD0629b71B674298440328b1Dd",
        "https://indexer-storage-testnet-turbo.0g.ai/file/PLACEHOLDER_2",
        "(AgentFi Risk Scorer, Deterministic portfolio risk scoring - volatility, concentration, stablecoin analysis, [\\\"risk_scoring\\\",\\\"volatility_analysis\\\",\\\"deterministic_scoring\\\",\\\"portfolio_assessment\\\"], 500000000000000)",
        "0xb5ea18e6fb7697d0c728c26bfdd04910209086abc3c8c90021600d15a172269c",
        "0g://encrypted/risk-scorer-v2",
        "0x7365616c65642d6b65792d7269736b2d7632"
      ],
      "transaction": {
        "from": "0x96455c9b00d530bd0629b71b674298440328b1dd",
        "to": "0xdcd2e9b068913fcf0c80ff5da070b243df091efe",
        "gas": "0x98d64",
        "value": "0x0",
        "input": "0x45d0781c00000000000000000000000096455c9b00d530bd0629b71b674298440328b1dd00000000000000000000000000000000000000000000000000000000000000c00000000000000000000000000000000000000000000000000000000000000120b5ea18e6fb7697d0c728c26bfdd04910209086abc3c8c90021600d15a172269c00000000000000000000000000000000000000000000000000000000000002e00000000000000000000000000000000000000000000000000000000000000320000000000000000000000000000000000000000000000000000000000000003e68747470733a2f2f696e64657865722d73746f726167652d746573746e65742d747572626f2e30672e61692f66696c652f504c414345484f4c4445525f320000000000000000000000000000000000000000000000000000000000000000008000000000000000000000000000000000000000000000000000000000000000c000000000000000000000000000000000000000000000000000000000000001400000000000000000000000000000000000000000000000000001c6bf5263400000000000000000000000000000000000000000000000000000000000000000134167656e744669205269736b2053636f72657200000000000000000000000000000000000000000000000000000000000000000000000000000000000000005544657465726d696e697374696320706f7274666f6c696f207269736b2073636f72696e67202d20766f6c6174696c6974792c20636f6e63656e74726174696f6e2c20737461626c65636f696e20616e616c79736973000000000000000000000000000000000000000000000000000000000000000000000000000000000000555b227269736b5f73636f72696e67222c22766f6c6174696c6974795f616e616c79736973222c2264657465726d696e69737469635f73636f72696e67222c22706f7274666f6c696f5f6173736573736d656e74225d0000000000000000000000000000000000000000000000000000000000000000000000000000000000001d30673a2f2f656e637279707465642f7269736b2d73636f7265722d763200000000000000000000000000000000000000000000000000000000000000000000127365616c65642d6b65792d7269736b2d76320000000000000000000000000000",
        "nonce": "0x2b",
        "chainId": "0x40da"
      },
      "additionalContracts": [],
      "isFixedGasLimit": false
    },
    {
      "hash": "0x0be84d6fad01af55f687474dc4c89c495bec72a40dfc2b7937876b27bb3ea805",
      "transactionType": "CALL",
      "contractName": null,
      "contractAddress": "0x0ec3981a544c3dc6983c523860e13c2b7a66cd6e",
      "function": "listAgent(uint256,uint256)",
      "arguments": [
        "0",
        "1000000000000000"
      ],
      "transaction": {
        "from": "0x96455c9b00d530bd0629b71b674298440328b1dd",
        "to": "0x0ec3981a544c3dc6983c523860e13c2b7a66cd6e",
        "gas": "0x2cf33",
        "value": "0x0",
        "input": "0x07e34e49000000000000000000000000000000000000000000000000000000000000000000000000000000000000000000000000000000000000000000038d7ea4c68000",
        "nonce": "0x2c",
        "chainId": "0x40da"
      },
      "additionalContracts": [],
      "isFixedGasLimit": false
    },
    {
      "hash": "0x7670174d123c02a693f1072d22a3dd69f14bd756c95ec3dcc3930ab30370cd00",
      "transactionType": "CALL",
      "contractName": null,
      "contractAddress": "0x0ec3981a544c3dc6983c523860e13c2b7a66cd6e",
      "function": "listAgent(uint256,uint256)",
      "arguments": [
        "1",
        "1000000000000000"
      ],
      "transaction": {
        "from": "0x96455c9b00d530bd0629b71b674298440328b1dd",
        "to": "0x0ec3981a544c3dc6983c523860e13c2b7a66cd6e",
        "gas": "0x350f3",
        "value": "0x0",
        "input": "0x07e34e49000000000000000000000000000000000000000000000000000000000000000100000000000000000000000000000000000000000000000000038d7ea4c68000",
        "nonce": "0x2d",
        "chainId": "0x40da"
      },
      "additionalContracts": [],
      "isFixedGasLimit": false
    },
    {
      "hash": "0x079047f9420fed41e155f9249f0a879c6909186075940302517ba72bd63d394c",
      "transactionType": "CALL",
      "contractName": null,
      "contractAddress": "0x0ec3981a544c3dc6983c523860e13c2b7a66cd6e",
      "function": "listAgent(uint256,uint256)",
      "arguments": [
        "2",
        "500000000000000"
      ],
      "transaction": {
        "from": "0x96455c9b00d530bd0629b71b674298440328b1dd",
        "to": "0x0ec3981a544c3dc6983c523860e13c2b7a66cd6e",
        "gas": "0x350f3",
        "value": "0x0",
        "input": "0x07e34e4900000000000000000000000000000000000000000000000000000000000000020000000000000000000000000000000000000000000000000001c6bf52634000",
        "nonce": "0x2e",
        "chainId": "0x40da"
      },
      "additionalContracts": [],
      "isFixedGasLimit": false
    }
  ],
  "receipts": [
    {
      "status": "0x1",
      "cumulativeGasUsed": "0x1048b2",
      "logs": [
        {
          "address": "0xdcd2e9b068913fcf0c80ff5da070b243df091efe",
          "topics": [
            "0xddf252ad1be2c89b69c2b068fc378daa952ba7f163c4a11628f55a4df523b3ef",
            "0x0000000000000000000000000000000000000000000000000000000000000000",
            "0x00000000000000000000000096455c9b00d530bd0629b71b674298440328b1dd",
            "0x0000000000000000000000000000000000000000000000000000000000000000"
          ],
          "data": "0x",
          "blockHash": "0x74908b527fc2239496b4edee9b344b85e080c370a6d2103c73d5bdd03873ba32",
          "blockNumber": "0x14222f3",
          "blockTimestamp": "0x0",
          "transactionHash": "0xe9c41a27b938cdb7e1221726992b60c1b0552f75f78e8447ed9c6a8e47fd3109",
          "transactionIndex": "0x1",
          "logIndex": "0x0",
          "removed": false
        },
        {
          "address": "0xdcd2e9b068913fcf0c80ff5da070b243df091efe",
          "topics": [
            "0xf8e1a15aba9398e019f0b49df1a4fde98ee17ae345cb5f6b5e2c27f5033e8ce7"
          ],
          "data": "0x0000000000000000000000000000000000000000000000000000000000000000",
          "blockHash": "0x74908b527fc2239496b4edee9b344b85e080c370a6d2103c73d5bdd03873ba32",
          "blockNumber": "0x14222f3",
          "blockTimestamp": "0x0",
          "transactionHash": "0xe9c41a27b938cdb7e1221726992b60c1b0552f75f78e8447ed9c6a8e47fd3109",
          "transactionIndex": "0x1",
          "logIndex": "0x1",
          "removed": false
        },
        {
          "address": "0xdcd2e9b068913fcf0c80ff5da070b243df091efe",
          "topics": [
            "0xa24526d9177ad7404926eef14a34a6c8283948f387d426e2ace696d7bb72d97c",
            "0x0000000000000000000000000000000000000000000000000000000000000000",
            "0x00000000000000000000000096455c9b00d530bd0629b71b674298440328b1dd"
          ],
          "data": "0x",
          "blockHash": "0x74908b527fc2239496b4edee9b344b85e080c370a6d2103c73d5bdd03873ba32",
          "blockNumber": "0x14222f3",
          "blockTimestamp": "0x0",
          "transactionHash": "0xe9c41a27b938cdb7e1221726992b60c1b0552f75f78e8447ed9c6a8e47fd3109",
          "transactionIndex": "0x1",
          "logIndex": "0x2",
          "removed": false
        }
      ],
      "logsBloom": "0x00000000000000000000000000000000000000000000000000000000000000000800000000000000000000000000000000000000800000000000000000000000000040000000000000000008000000000000000000000000000000000000000000000000020000000000000000000800008000000000000000000010000000000000000000000000000000000000000000000000000000000010000000000000000000000000000000000000000000002000000000000000000000000800008000000002000000000000000000000000000000000000000000000000000020004000000000000000200000000000000001000000000200000000000000000000",
      "type": "0x0",
      "transactionHash": "0xe9c41a27b938cdb7e1221726992b60c1b0552f75f78e8447ed9c6a8e47fd3109",
      "transactionIndex": "0x1",
      "blockHash": "0x74908b527fc2239496b4edee9b344b85e080c370a6d2103c73d5bdd03873ba32",
      "blockNumber": "0x14222f3",
      "gasUsed": "0x897f2",
      "effectiveGasPrice": "0xb2d05e00",
      "from": "0x96455c9b00d530bd0629b71b674298440328b1dd",
      "to": "0xdcd2e9b068913fcf0c80ff5da070b243df091efe",
      "contractAddress": null
    },
    {
      "status": "0x1",
      "cumulativeGasUsed": "0x18ad5a",
      "logs": [
        {
          "address": "0xdcd2e9b068913fcf0c80ff5da070b243df091efe",
          "topics": [
            "0xddf252ad1be2c89b69c2b068fc378daa952ba7f163c4a11628f55a4df523b3ef",
            "0x0000000000000000000000000000000000000000000000000000000000000000",
            "0x00000000000000000000000096455c9b00d530bd0629b71b674298440328b1dd",
            "0x0000000000000000000000000000000000000000000000000000000000000001"
          ],
          "data": "0x",
          "blockHash": "0x74908b527fc2239496b4edee9b344b85e080c370a6d2103c73d5bdd03873ba32",
          "blockNumber": "0x14222f3",
          "blockTimestamp": "0x0",
          "transactionHash": "0x0f50f90f265dffef1969ed6e4a3760a2c6dc831527807a190142c178aea42297",
          "transactionIndex": "0x2",
          "logIndex": "0x3",
          "removed": false
        },
        {
          "address": "0xdcd2e9b068913fcf0c80ff5da070b243df091efe",
          "topics": [
            "0xf8e1a15aba9398e019f0b49df1a4fde98ee17ae345cb5f6b5e2c27f5033e8ce7"
          ],
          "data": "0x0000000000000000000000000000000000000000000000000000000000000001",
          "blockHash": "0x74908b527fc2239496b4edee9b344b85e080c370a6d2103c73d5bdd03873ba32",
          "blockNumber": "0x14222f3",
          "blockTimestamp": "0x0",
          "transactionHash": "0x0f50f90f265dffef1969ed6e4a3760a2c6dc831527807a190142c178aea42297",
          "transactionIndex": "0x2",
          "logIndex": "0x4",
          "removed": false
        },
        {
          "address": "0xdcd2e9b068913fcf0c80ff5da070b243df091efe",
          "topics": [
            "0xa24526d9177ad7404926eef14a34a6c8283948f387d426e2ace696d7bb72d97c",
            "0x0000000000000000000000000000000000000000000000000000000000000001",
            "0x00000000000000000000000096455c9b00d530bd0629b71b674298440328b1dd"
          ],
          "data": "0x",
          "blockHash": "0x74908b527fc2239496b4edee9b344b85e080c370a6d2103c73d5bdd03873ba32",
          "blockNumber": "0x14222f3",
          "blockTimestamp": "0x0",
          "transactionHash": "0x0f50f90f265dffef1969ed6e4a3760a2c6dc831527807a190142c178aea42297",
          "transactionIndex": "0x2",
          "logIndex": "0x5",
          "removed": false
        }
      ],
      "logsBloom": "0x00000000000000000000000000000000000000000000000000000000000000000800000000000000000000000000000000000000800000000000000000040000000040000000000000000008000000000000000000040000000000000000000000000000020000000000000000000800008000000000000000000010000000000000000000000000000000000000000000000000000000000010000000000000000000000000000000000000000000002000000000000000000000000800008000000002000000000000000000000000000000000000000000000000000060004000000000000000200000000000000001000000000200000000000000000000",
      "type": "0x0",
      "transactionHash": "0x0f50f90f265dffef1969ed6e4a3760a2c6dc831527807a190142c178aea42297",
      "transactionIndex": "0x2",
      "blockHash": "0x74908b527fc2239496b4edee9b344b85e080c370a6d2103c73d5bdd03873ba32",
      "blockNumber": "0x14222f3",
      "gasUsed": "0x864a8",
      "effectiveGasPrice": "0xb2d05e00",
      "from": "0x96455c9b00d530bd0629b71b674298440328b1dd",
      "to": "0xdcd2e9b068913fcf0c80ff5da070b243df091efe",
      "contractAddress": null
    },
    {
      "status": "0x1",
      "cumulativeGasUsed": "0x2051aa",
      "logs": [
        {
          "address": "0xdcd2e9b068913fcf0c80ff5da070b243df091efe",
          "topics": [
            "0xddf252ad1be2c89b69c2b068fc378daa952ba7f163c4a11628f55a4df523b3ef",
            "0x0000000000000000000000000000000000000000000000000000000000000000",
            "0x00000000000000000000000096455c9b00d530bd0629b71b674298440328b1dd",
            "0x0000000000000000000000000000000000000000000000000000000000000002"
          ],
          "data": "0x",
          "blockHash": "0x74908b527fc2239496b4edee9b344b85e080c370a6d2103c73d5bdd03873ba32",
          "blockNumber": "0x14222f3",
          "blockTimestamp": "0x0",
          "transactionHash": "0x5a9dcecfb71c23131d647c42229646853fdce73074a6732f0fdebd012506cb82",
          "transactionIndex": "0x3",
          "logIndex": "0x6",
          "removed": false
        },
        {
          "address": "0xdcd2e9b068913fcf0c80ff5da070b243df091efe",
          "topics": [
            "0xf8e1a15aba9398e019f0b49df1a4fde98ee17ae345cb5f6b5e2c27f5033e8ce7"
          ],
          "data": "0x0000000000000000000000000000000000000000000000000000000000000002",
          "blockHash": "0x74908b527fc2239496b4edee9b344b85e080c370a6d2103c73d5bdd03873ba32",
          "blockNumber": "0x14222f3",
          "blockTimestamp": "0x0",
          "transactionHash": "0x5a9dcecfb71c23131d647c42229646853fdce73074a6732f0fdebd012506cb82",
          "transactionIndex": "0x3",
          "logIndex": "0x7",
          "removed": false
        },
        {
          "address": "0xdcd2e9b068913fcf0c80ff5da070b243df091efe",
          "topics": [
            "0xa24526d9177ad7404926eef14a34a6c8283948f387d426e2ace696d7bb72d97c",
            "0x0000000000000000000000000000000000000000000000000000000000000002",
            "0x00000000000000000000000096455c9b00d530bd0629b71b674298440328b1dd"
          ],
          "data": "0x",
          "blockHash": "0x74908b527fc2239496b4edee9b344b85e080c370a6d2103c73d5bdd03873ba32",
          "blockNumber": "0x14222f3",
          "blockTimestamp": "0x0",
          "transactionHash": "0x5a9dcecfb71c23131d647c42229646853fdce73074a6732f0fdebd012506cb82",
          "transactionIndex": "0x3",
          "logIndex": "0x8",
          "removed": false
        }
      ],
      "logsBloom": "0x04000000000000000000000000000000000000000000000000000000000000000800000000000000000000000000000000000000800000000000000000000000000040000000000000000008000000000000000000000000000000000000000000000000020000000000000000000800008000000000000000000010000000000000000000000000000000000000000000000000000000000010000000000000000000000000000000000100000000002000000000000000000000000800008000000002000000000000000000000000000000000000000000000000000020004000000000000000200000000000000001000000008200000000000000000000",
      "type": "0x0",
      "transactionHash": "0x5a9dcecfb71c23131d647c42229646853fdce73074a6732f0fdebd012506cb82",
      "transactionIndex": "0x3",
      "blockHash": "0x74908b527fc2239496b4edee9b344b85e080c370a6d2103c73d5bdd03873ba32",
      "blockNumber": "0x14222f3",
      "gasUsed": "0x7a450",
      "effectiveGasPrice": "0xb2d05e00",
      "from": "0x96455c9b00d530bd0629b71b674298440328b1dd",
      "to": "0xdcd2e9b068913fcf0c80ff5da070b243df091efe",
      "contractAddress": null
    },
    {
      "status": "0x1",
      "cumulativeGasUsed": "0x229106",
      "logs": [
        {
          "address": "0x0ec3981a544c3dc6983c523860e13c2b7a66cd6e",
          "topics": [
            "0x2c179e1e4a2440acecf6f47ee9d109186409daeeab22578623edc7bf37ddbbc1",
            "0x0000000000000000000000000000000000000000000000000000000000000000",
            "0x00000000000000000000000096455c9b00d530bd0629b71b674298440328b1dd"
          ],
          "data": "0x00000000000000000000000000000000000000000000000000038d7ea4c68000",
          "blockHash": "0x74908b527fc2239496b4edee9b344b85e080c370a6d2103c73d5bdd03873ba32",
          "blockNumber": "0x14222f3",
          "blockTimestamp": "0x0",
          "transactionHash": "0x7670174d123c02a693f1072d22a3dd69f14bd756c95ec3dcc3930ab30370cd00",
          "transactionIndex": "0x4",
          "logIndex": "0x9",
          "removed": false
        }
      ],
      "logsBloom": "0x00000180000000000000000000000000000000000000004000000000000000000800000000000000000000000000000000000000800000000000000400000000000000000000000000000000000000000000000000000000000000000000000000000000020000000000000000000800000000000000000000000000000000000000000000000000000000000000010000000000000000000000000000000000000000000000000000002000000000000000000000000000000000000000000000000000000000000000000000000000000000000000000000000000000020000000000000000000000000000000000001000000000000000000000000000000",
      "type": "0x0",
      "transactionHash": "0x7670174d123c02a693f1072d22a3dd69f14bd756c95ec3dcc3930ab30370cd00",
      "transactionIndex": "0x4",
      "blockHash": "0x74908b527fc2239496b4edee9b344b85e080c370a6d2103c73d5bdd03873ba32",
      "blockNumber": "0x14222f3",
      "gasUsed": "0x23f5c",
      "effectiveGasPrice": "0xb2d05e00",
      "from": "0x96455c9b00d530bd0629b71b674298440328b1dd",
      "to": "0x0ec3981a544c3dc6983c523860e13c2b7a66cd6e",
      "contractAddress": null
    },
    {
      "status": "0x1",
      "cumulativeGasUsed": "0x25382e",
      "logs": [
        {
          "address": "0x0ec3981a544c3dc6983c523860e13c2b7a66cd6e",
          "topics": [
            "0x2c179e1e4a2440acecf6f47ee9d109186409daeeab22578623edc7bf37ddbbc1",
            "0x0000000000000000000000000000000000000000000000000000000000000001",
            "0x00000000000000000000000096455c9b00d530bd0629b71b674298440328b1dd"
          ],
          "data": "0x00000000000000000000000000000000000000000000000000038d7ea4c68000",
          "blockHash": "0x74908b527fc2239496b4edee9b344b85e080c370a6d2103c73d5bdd03873ba32",
          "blockNumber": "0x14222f3",
          "blockTimestamp": "0x0",
          "transactionHash": "0x0be84d6fad01af55f687474dc4c89c495bec72a40dfc2b7937876b27bb3ea805",
          "transactionIndex": "0x5",
          "logIndex": "0xa",
          "removed": false
        }
      ],
      "logsBloom": "0x00000180000000000000000000000000000000000000004000000000000000000800000000000000000000000000000000000000800000000000000400040000000000000000000000000000000000000000000000040000000000000000000000000000000000000000000000000000000000000000000000000000000000000000000000000000000000000000010000000000000000000000000000000000000000000000000000002000000000000000000000000000000000000000000000000000000000000000000000000000000000000000000000000000000040000000000000000000000000000000000001000000000000000000000000000000",
      "type": "0x0",
      "transactionHash": "0x0be84d6fad01af55f687474dc4c89c495bec72a40dfc2b7937876b27bb3ea805",
      "transactionIndex": "0x5",
      "blockHash": "0x74908b527fc2239496b4edee9b344b85e080c370a6d2103c73d5bdd03873ba32",
      "blockNumber": "0x14222f3",
      "gasUsed": "0x2a728",
      "effectiveGasPrice": "0xb2d05e00",
      "from": "0x96455c9b00d530bd0629b71b674298440328b1dd",
      "to": "0x0ec3981a544c3dc6983c523860e13c2b7a66cd6e",
      "contractAddress": null
    },
    {
      "status": "0x1",
      "cumulativeGasUsed": "0x27df56",
      "logs": [
        {
          "address": "0x0ec3981a544c3dc6983c523860e13c2b7a66cd6e",
          "topics": [
            "0x2c179e1e4a2440acecf6f47ee9d109186409daeeab22578623edc7bf37ddbbc1",
            "0x0000000000000000000000000000000000000000000000000000000000000002",
            "0x00000000000000000000000096455c9b00d530bd0629b71b674298440328b1dd"
          ],
          "data": "0x0000000000000000000000000000000000000000000000000001c6bf52634000",
          "blockHash": "0x74908b527fc2239496b4edee9b344b85e080c370a6d2103c73d5bdd03873ba32",
          "blockNumber": "0x14222f3",
          "blockTimestamp": "0x0",
          "transactionHash": "0x079047f9420fed41e155f9249f0a879c6909186075940302517ba72bd63d394c",
          "transactionIndex": "0x6",
          "logIndex": "0xb",
          "removed": false
        }
      ],
      "logsBloom": "0x04000180000000000000000000000000000000000000004000000000000000000800000000000000000000000000000000000000800000000000000400000000000000000000000000000000000000000000000000000000000000000000000000000000000000000000000000000000000000000000000000000000000000000000000000000000000000000000010000000000000000000000000000000000000000000000000000002100000000000000000000000000000000000000000000000000000000000000000000000000000000000000000000000000000000000000000000000000000000000000000001000000008000000000000000000000",
      "type": "0x0",
      "transactionHash": "0x079047f9420fed41e155f9249f0a879c6909186075940302517ba72bd63d394c",
      "transactionIndex": "0x6",
      "blockHash": "0x74908b527fc2239496b4edee9b344b85e080c370a6d2103c73d5bdd03873ba32",
      "blockNumber": "0x14222f3",
      "gasUsed": "0x2a728",
      "effectiveGasPrice": "0xb2d05e00",
      "from": "0x96455c9b00d530bd0629b71b674298440328b1dd",
      "to": "0x0ec3981a544c3dc6983c523860e13c2b7a66cd6e",
      "contractAddress": null
    }
  ],
  "libraries": [],
  "pending": [],
  "returns": {},
  "timestamp": 1771628261180,
  "chain": 16602,
  "commit": "86b0923"
}