{
  "transactions": [
    {
      "hash": "0xeb5be96eaad573affb894c55d1904a33720bb03aa75c2f7b9c217768d192c133",
      "transactionType": "CALL",
      "contractName": null,
      "contractAddress": "0x10e3399025e930da7b4d4be71181157ccee4e882",
      "function": "mint(address,string,(string,string,string,uint256))",
      "arguments": [
        "0x96455C9b00D530BD0629b71B674298440328b1Dd",
        "https://agentfi.xyz/metadata/0",
        "(QmPortfolioAnalyzerV1, You are a DeFi portfolio analyzer. Analyze token holdings, calculate allocation percentages, and identify concentration risks., [\\\"portfolio_analysis\\\",\\\"token_tracking\\\",\\\"allocation_report\\\"], 1000000000000000)"
      ],
      "transaction": {
        "from": "0x96455c9b00d530bd0629b71b674298440328b1dd",
        "to": "0x10e3399025e930da7b4d4be71181157ccee4e882",
        "gas": "0x76169",
        "value": "0x0",
        "input": "0xd7968b4a00000000000000000000000096455c9b00d530bd0629b71b674298440328b1dd000000000000000000000000000000000000000000000000000000000000006000000000000000000000000000000000000000000000000000000000000000a0000000000000000000000000000000000000000000000000000000000000001e68747470733a2f2f6167656e7466692e78797a2f6d657461646174612f300000000000000000000000000000000000000000000000000000000000000000008000000000000000000000000000000000000000000000000000000000000000c0000000000000000000000000000000000000000000000000000000000000016000000000000000000000000000000000000000000000000000038d7ea4c680000000000000000000000000000000000000000000000000000000000000000015516d506f7274666f6c696f416e616c797a657256310000000000000000000000000000000000000000000000000000000000000000000000000000000000007e596f75206172652061204465466920706f7274666f6c696f20616e616c797a65722e20416e616c797a6520746f6b656e20686f6c64696e67732c2063616c63756c61746520616c6c6f636174696f6e2070657263656e74616765732c20616e64206964656e7469667920636f6e63656e74726174696f6e207269736b732e0000000000000000000000000000000000000000000000000000000000000000003b5b22706f7274666f6c696f5f616e616c79736973222c22746f6b656e5f747261636b696e67222c22616c6c6f636174696f6e5f7265706f7274225d0000000000",
        "nonce": "0x2",
        "chainId": "0x40da"
      },
      "additionalContracts": [],
      "isFixedGasLimit": false
    },
    {
      "hash": "0xd91a249417fd36067d3320ae8652b5bb45f1b5fa70a5845b404ee1b189700838",
      "transactionType": "CALL",
      "contractName": null,
      "contractAddress": "0x1a9e3f39cf83e53ca34933f81b409a92ad004246",
      "function": "listAgent(uint256,uint256)",
      "arguments": [
        "0",
        "1000000000000000"
      ],
      "transaction": {
        "from": "0x96455c9b00d530bd0629b71b674298440328b1dd",
        "to": "0x1a9e3f39cf83e53ca34933f81b409a92ad004246",
        "gas": "0x29b99",
        "value": "0x0",
        "input": "0x07e34e49000000000000000000000000000000000000000000000000000000000000000000000000000000000000000000000000000000000000000000038d7ea4c68000",
        "nonce": "0x3",
        "chainId": "0x40da"
      },
      "additionalContracts": [],
      "isFixedGasLimit": false
    },
    {
      "hash": "0xdb6899bf1b078cb0b499639976a5633a80f6d3e6fbf4ee1e612fb08322a9de43",
      "transactionType": "CALL",
      "contractName": null,
      "contractAddress": "0x10e3399025e930da7b4d4be71181157ccee4e882",
      "function": "mint(address,string,(string,string,string,uint256))",
      "arguments": [
        "0x96455C9b00D530BD0629b71B674298440328b1Dd",
        "https://agentfi.xyz/metadata/1",
        "(QmYieldOptimizerV1, You are a DeFi yield optimizer. Find the best yield farming opportunities across protocols and suggest optimal allocation strategies., [\\\"yield_farming\\\",\\\"protocol_comparison\\\",\\\"apy_calculation\\\"], 1000000000000000)"
      ],
      "transaction": {
        "from": "0x96455c9b00d530bd0629b71b674298440328b1dd",
        "to": "0x10e3399025e930da7b4d4be71181157ccee4e882",
        "gas": "0x78cd6",
        "value": "0x0",
        "input": "0xd7968b4a00000000000000000000000096455c9b00d530bd0629b71b674298440328b1dd000000000000000000000000000000000000000000000000000000000000006000000000000000000000000000000000000000000000000000000000000000a0000000000000000000000000000000000000000000000000000000000000001e68747470733a2f2f6167656e7466692e78797a2f6d657461646174612f310000000000000000000000000000000000000000000000000000000000000000008000000000000000000000000000000000000000000000000000000000000000c0000000000000000000000000000000000000000000000000000000000000018000000000000000000000000000000000000000000000000000038d7ea4c680000000000000000000000000000000000000000000000000000000000000000012516d5969656c644f7074696d697a6572563100000000000000000000000000000000000000000000000000000000000000000000000000000000000000000085596f752061726520612044654669207969656c64206f7074696d697a65722e2046696e64207468652062657374207969656c64206661726d696e67206f70706f7274756e6974696573206163726f73732070726f746f636f6c7320616e642073756767657374206f7074696d616c20616c6c6f636174696f6e20737472617465676965732e00000000000000000000000000000000000000000000000000000000000000000000000000000000000000000000000000000000000000000000395b227969656c645f6661726d696e67222c2270726f746f636f6c5f636f6d70617269736f6e222c226170795f63616c63756c6174696f6e225d00000000000000",
        "nonce": "0x4",
        "chainId": "0x40da"
      },
      "additionalContracts": [],
      "isFixedGasLimit": false
    },
    {
      "hash": "0xfd92ed088c6d51b65eaef159f5c9fda1785fb6f9623c85bb8fb126141b5c666f",
      "transactionType": "CALL",
      "contractName": null,
      "contractAddress": "0x1a9e3f39cf83e53ca34933f81b409a92ad004246",
      "function": "listAgent(uint256,uint256)",
      "arguments": [
        "1",
        "1000000000000000"
      ],
      "transaction": {
        "from": "0x96455c9b00d530bd0629b71b674298440328b1dd",
        "to": "0x1a9e3f39cf83e53ca34933f81b409a92ad004246",
        "gas": "0x31624",
        "value": "0x0",
        "input": "0x07e34e49000000000000000000000000000000000000000000000000000000000000000100000000000000000000000000000000000000000000000000038d7ea4c68000",
        "nonce": "0x5",
        "chainId": "0x40da"
      },
      "additionalContracts": [],
      "isFixedGasLimit": false
    },
    {
      "hash": "0x36c582f6b90a67e7cf4d5d9739971450e41d0daf68328be480f7699770a144c9",
      "transactionType": "CALL",
      "contractName": null,
      "contractAddress": "0x10e3399025e930da7b4d4be71181157ccee4e882",
      "function": "mint(address,string,(string,string,string,uint256))",
      "arguments": [
        "0x96455C9b00D530BD0629b71B674298440328b1Dd",
        "https://agentfi.xyz/metadata/2",
        "(QmRiskScorerV1, You are a DeFi risk scorer. Evaluate portfolio risk across dimensions: volatility, impermanent loss, smart contract risk, and liquidity risk., [\\\"risk_assessment\\\",\\\"volatility_analysis\\\",\\\"safety_scoring\\\"], 500000000000000)"
      ],
      "transaction": {
        "from": "0x96455c9b00d530bd0629b71b674298440328b1dd",
        "to": "0x10e3399025e930da7b4d4be71181157ccee4e882",
        "gas": "0x721c7",
        "value": "0x0",
        "input": "0xd7968b4a00000000000000000000000096455c9b00d530bd0629b71b674298440328b1dd000000000000000000000000000000000000000000000000000000000000006000000000000000000000000000000000000000000000000000000000000000a0000000000000000000000000000000000000000000000000000000000000001e68747470733a2f2f6167656e7466692e78797a2f6d657461646174612f320000000000000000000000000000000000000000000000000000000000000000008000000000000000000000000000000000000000000000000000000000000000c000000000000000000000000000000000000000000000000000000000000001800000000000000000000000000000000000000000000000000001c6bf52634000000000000000000000000000000000000000000000000000000000000000000e516d5269736b53636f7265725631000000000000000000000000000000000000000000000000000000000000000000000000000000000000000000000000008d596f752061726520612044654669207269736b2073636f7265722e204576616c7561746520706f7274666f6c696f207269736b206163726f73732064696d656e73696f6e733a20766f6c6174696c6974792c20696d7065726d616e656e74206c6f73732c20736d61727420636f6e7472616374207269736b2c20616e64206c6971756964697479207269736b2e00000000000000000000000000000000000000000000000000000000000000000000000000000000000000000000000000003a5b227269736b5f6173736573736d656e74222c22766f6c6174696c6974795f616e616c79736973222c227361666574795f73636f72696e67225d000000000000",
        "nonce": "0x6",
        "chainId": "0x40da"
      },
      "additionalContracts": [],
      "isFixedGasLimit": false
    },
    {
      "hash": "0xb658bd81617d4fc8818326c86c2d29b708226244f0719e6ee33a5bfe1162bdd5",
      "transactionType": "CALL",
      "contractName": null,
      "contractAddress": "0x1a9e3f39cf83e53ca34933f81b409a92ad004246",
      "function": "listAgent(uint256,uint256)",
      "arguments": [
        "2",
        "500000000000000"
      ],
      "transaction": {
        "from": "0x96455c9b00d530bd0629b71b674298440328b1dd",
        "to": "0x1a9e3f39cf83e53ca34933f81b409a92ad004246",
        "gas": "0x31624",
        "value": "0x0",
        "input": "0x07e34e4900000000000000000000000000000000000000000000000000000000000000020000000000000000000000000000000000000000000000000001c6bf52634000",
        "nonce": "0x7",
        "chainId": "0x40da"
      },
      "additionalContracts": [],
      "isFixedGasLimit": false
    }
  ],
  "receipts": [
    {
      "status": "0x1",
      "cumulativeGasUsed": "0x5e787",
      "logs": [
        {
          "address": "0x10e3399025e930da7b4d4be71181157ccee4e882",
          "topics": [
            "0xddf252ad1be2c89b69c2b068fc378daa952ba7f163c4a11628f55a4df523b3ef",
            "0x0000000000000000000000000000000000000000000000000000000000000000",
            "0x00000000000000000000000096455c9b00d530bd0629b71b674298440328b1dd",
            "0x0000000000000000000000000000000000000000000000000000000000000000"
          ],
          "data": "0x",
          "blockHash": "0x4610272c6998cf549b84f4cd9e0f58f87d493e15319a158d364a447b00b13b58",
          "blockNumber": "0x13f6107",
          "blockTimestamp": "0x0",
          "transactionHash": "0xdb6899bf1b078cb0b499639976a5633a80f6d3e6fbf4ee1e612fb08322a9de43",
          "transactionIndex": "0x0",
          "logIndex": "0x0",
          "removed": false
        },
        {
          "address": "0x10e3399025e930da7b4d4be71181157ccee4e882",
          "topics": [
            "0xf8e1a15aba9398e019f0b49df1a4fde98ee17ae345cb5f6b5e2c27f5033e8ce7"
          ],
          "data": "0x0000000000000000000000000000000000000000000000000000000000000000",
          "blockHash": "0x4610272c6998cf549b84f4cd9e0f58f87d493e15319a158d364a447b00b13b58",
          "blockNumber": "0x13f6107",
          "blockTimestamp": "0x0",
          "transactionHash": "0xdb6899bf1b078cb0b499639976a5633a80f6d3e6fbf4ee1e612fb08322a9de43",
          "transactionIndex": "0x0",
          "logIndex": "0x1",
          "removed": false
        },
        {
          "address": "0x10e3399025e930da7b4d4be71181157ccee4e882",
          "topics": [
            "0xa24526d9177ad7404926eef14a34a6c8283948f387d426e2ace696d7bb72d97c",
            "0x0000000000000000000000000000000000000000000000000000000000000000",
            "0x00000000000000000000000096455c9b00d530bd0629b71b674298440328b1dd"
          ],
          "data": "0x",
          "blockHash": "0x4610272c6998cf549b84f4cd9e0f58f87d493e15319a158d364a447b00b13b58",
          "blockNumber": "0x13f6107",
          "blockTimestamp": "0x0",
          "transactionHash": "0xdb6899bf1b078cb0b499639976a5633a80f6d3e6fbf4ee1e612fb08322a9de43",
          "transactionIndex": "0x0",
          "logIndex": "0x2",
          "removed": false
        }
      ],
      "logsBloom": "0x00000000000000000000000000000000000000000000000000000001000000000800000000000000000000000000200000000000800000000000000000000000000040000000000000000008000000000000000000000000000000000000000000000000020000000000000000000800000000000000000000000010000000000000000000000000000000000000000000000000000000000010000000000001000000000000000000000000000000002000000000000000000000000800008000000002000000000000000000000000000000000000000000000000000020000000000000000000200000000000000001000000000000000000000000000000",
      "type": "0x2",
      "transactionHash": "0xdb6899bf1b078cb0b499639976a5633a80f6d3e6fbf4ee1e612fb08322a9de43",
      "transactionIndex": "0x0",
      "blockHash": "0x4610272c6998cf549b84f4cd9e0f58f87d493e15319a158d364a447b00b13b58",
      "blockNumber": "0x13f6107",
      "gasUsed": "0x5e787",
      "effectiveGasPrice": "0xb2d05e07",
      "from": "0x96455c9b00d530bd0629b71b674298440328b1dd",
      "to": "0x10e3399025e930da7b4d4be71181157ccee4e882",
      "contractAddress": null
    },
    {
      "status": "0x1",
      "cumulativeGasUsed": "0x7fd9b",
      "logs": [
        {
          "address": "0x1a9e3f39cf83e53ca34933f81b409a92ad004246",
          "topics": [
            "0x2c179e1e4a2440acecf6f47ee9d109186409daeeab22578623edc7bf37ddbbc1",
            "0x0000000000000000000000000000000000000000000000000000000000000000",
            "0x00000000000000000000000096455c9b00d530bd0629b71b674298440328b1dd"
          ],
          "data": "0x00000000000000000000000000000000000000000000000000038d7ea4c68000",
          "blockHash": "0x4610272c6998cf549b84f4cd9e0f58f87d493e15319a158d364a447b00b13b58",
          "blockNumber": "0x13f6107",
          "blockTimestamp": "0x0",
          "transactionHash": "0xb658bd81617d4fc8818326c86c2d29b708226244f0719e6ee33a5bfe1162bdd5",
          "transactionIndex": "0x1",
          "logIndex": "0x3",
          "removed": false
        }
      ],
      "logsBloom": "0x00000080000000000000000000000000000000000000004000000000000000000800000000000000000000000000000000000000800000000000000000000000000000000000800000000000000000000000000000000000000000000000000000000000020000000000000000000800000000000000008000008000000000000000000000000000000000000000010000000000000000000000000000000000000000000000000000000000000000000000000000000000000000000000000000000000000000000000000000000000000000000000000000000000000020000000000000000000000000000000000001000000000000000000000000000000",
      "type": "0x2",
      "transactionHash": "0xb658bd81617d4fc8818326c86c2d29b708226244f0719e6ee33a5bfe1162bdd5",
      "transactionIndex": "0x1",
      "blockHash": "0x4610272c6998cf549b84f4cd9e0f58f87d493e15319a158d364a447b00b13b58",
      "blockNumber": "0x13f6107",
      "gasUsed": "0x21614",
      "effectiveGasPrice": "0xb2d05e07",
      "from": "0x96455c9b00d530bd0629b71b674298440328b1dd",
      "to": "0x1a9e3f39cf83e53ca34933f81b409a92ad004246",
      "contractAddress": null
    },
    {
      "status": "0x1",
      "cumulativeGasUsed": "0xe07df",
      "logs": [
        {
          "address": "0x10e3399025e930da7b4d4be71181157ccee4e882",
          "topics": [
            "0xddf252ad1be2c89b69c2b068fc378daa952ba7f163c4a11628f55a4df523b3ef",
            "0x0000000000000000000000000000000000000000000000000000000000000000",
            "0x00000000000000000000000096455c9b00d530bd0629b71b674298440328b1dd",
            "0x0000000000000000000000000000000000000000000000000000000000000001"
          ],
          "data": "0x",
          "blockHash": "0x4610272c6998cf549b84f4cd9e0f58f87d493e15319a158d364a447b00b13b58",
          "blockNumber": "0x13f6107",
          "blockTimestamp": "0x0",
          "transactionHash": "0xfd92ed088c6d51b65eaef159f5c9fda1785fb6f9623c85bb8fb126141b5c666f",
          "transactionIndex": "0x2",
          "logIndex": "0x4",
          "removed": false
        },
        {
          "address": "0x10e3399025e930da7b4d4be71181157ccee4e882",
          "topics": [
            "0xf8e1a15aba9398e019f0b49df1a4fde98ee17ae345cb5f6b5e2c27f5033e8ce7"
          ],
          "data": "0x0000000000000000000000000000000000000000000000000000000000000001",
          "blockHash": "0x4610272c6998cf549b84f4cd9e0f58f87d493e15319a158d364a447b00b13b58",
          "blockNumber": "0x13f6107",
          "blockTimestamp": "0x0",
          "transactionHash": "0xfd92ed088c6d51b65eaef159f5c9fda1785fb6f9623c85bb8fb126141b5c666f",
          "transactionIndex": "0x2",
          "logIndex": "0x5",
          "removed": false
        },
        {
          "address": "0x10e3399025e930da7b4d4be71181157ccee4e882",
          "topics": [
            "0xa24526d9177ad7404926eef14a34a6c8283948f387d426e2ace696d7bb72d97c",
            "0x0000000000000000000000000000000000000000000000000000000000000001",
            "0x00000000000000000000000096455c9b00d530bd0629b71b674298440328b1dd"
          ],
          "data": "0x",
          "blockHash": "0x4610272c6998cf549b84f4cd9e0f58f87d493e15319a158d364a447b00b13b58",
          "blockNumber": "0x13f6107",
          "blockTimestamp": "0x0",
          "transactionHash": "0xfd92ed088c6d51b65eaef159f5c9fda1785fb6f9623c85bb8fb126141b5c666f",
          "transactionIndex": "0x2",
          "logIndex": "0x6",
          "removed": false
        }
      ],
      "logsBloom": "0x00000000000000000000000000000000000000000000000000000001000000000800000000000000000000000000200000000000800000000000000000040000000040000000000000000008000000000000000000040000000000000000000000000000020000000000000000000800000000000000000000000010000000000000000000000000000000000000000000000000000000000010000000000001000000000000000000000000000000002000000000000000000000000800008000000002000000000000000000000000000000000000000000000000000060000000000000000000200000000000000001000000000000000000000000000000",
      "type": "0x2",
      "transactionHash": "0xfd92ed088c6d51b65eaef159f5c9fda1785fb6f9623c85bb8fb126141b5c666f",
      "transactionIndex": "0x2",
      "blockHash": "0x4610272c6998cf549b84f4cd9e0f58f87d493e15319a158d364a447b00b13b58",
      "blockNumber": "0x13f6107",
      "gasUsed": "0x60a44",
      "effectiveGasPrice": "0xb2d05e07",
      "from": "0x96455c9b00d530bd0629b71b674298440328b1dd",
      "to": "0x10e3399025e930da7b4d4be71181157ccee4e882",
      "contractAddress": null
    },
    {
      "status": "0x1",
      "cumulativeGasUsed": "0x107ffb",
      "logs": [
        {
          "address": "0x1a9e3f39cf83e53ca34933f81b409a92ad004246",
          "topics": [
            "0x2c179e1e4a2440acecf6f47ee9d109186409daeeab22578623edc7bf37ddbbc1",
            "0x0000000000000000000000000000000000000000000000000000000000000001",
            "0x00000000000000000000000096455c9b00d530bd0629b71b674298440328b1dd"
          ],
          "data": "0x00000000000000000000000000000000000000000000000000038d7ea4c68000",
          "blockHash": "0x4610272c6998cf549b84f4cd9e0f58f87d493e15319a158d364a447b00b13b58",
          "blockNumber": "0x13f6107",
          "blockTimestamp": "0x0",
          "transactionHash": "0xeb5be96eaad573affb894c55d1904a33720bb03aa75c2f7b9c217768d192c133",
          "transactionIndex": "0x3",
          "logIndex": "0x7",
          "removed": false
        }
      ],
      "logsBloom": "0x00000080000000000000000000000000000000000000004000000000000000000800000000000000000000000000000000000000800000000000000000040000000000000000800000000000000000000000000000040000000000000000000000000000000000000000000000000000000000000000008000008000000000000000000000000000000000000000010000000000000000000000000000000000000000000000000000000000000000000000000000000000000000000000000000000000000000000000000000000000000000000000000000000000000040000000000000000000000000000000000001000000000000000000000000000000",
      "type": "0x2",
      "transactionHash": "0xeb5be96eaad573affb894c55d1904a33720bb03aa75c2f7b9c217768d192c133",
      "transactionIndex": "0x3",
      "blockHash": "0x4610272c6998cf549b84f4cd9e0f58f87d493e15319a158d364a447b00b13b58",
      "blockNumber": "0x13f6107",
      "gasUsed": "0x2781c",
      "effectiveGasPrice": "0xb2d05e07",
      "from": "0x96455c9b00d530bd0629b71b674298440328b1dd",
      "to": "0x1a9e3f39cf83e53ca34933f81b409a92ad004246",
      "contractAddress": null
    },
    {
      "status": "0x1",
      "cumulativeGasUsed": "0x16349a",
      "logs": [
        {
          "address": "0x10e3399025e930da7b4d4be71181157ccee4e882",
          "topics": [
            "0xddf252ad1be2c89b69c2b068fc378daa952ba7f163c4a11628f55a4df523b3ef",
            "0x0000000000000000000000000000000000000000000000000000000000000000",
            "0x00000000000000000000000096455c9b00d530bd0629b71b674298440328b1dd",
            "0x0000000000000000000000000000000000000000000000000000000000000002"
          ],
          "data": "0x",
          "blockHash": "0x4610272c6998cf549b84f4cd9e0f58f87d493e15319a158d364a447b00b13b58",
          "blockNumber": "0x13f6107",
          "blockTimestamp": "0x0",
          "transactionHash": "0xd91a249417fd36067d3320ae8652b5bb45f1b5fa70a5845b404ee1b189700838",
          "transactionIndex": "0x4",
          "logIndex": "0x8",
          "removed": false
        },
        {
          "address": "0x10e3399025e930da7b4d4be71181157ccee4e882",
          "topics": [
            "0xf8e1a15aba9398e019f0b49df1a4fde98ee17ae345cb5f6b5e2c27f5033e8ce7"
          ],
          "data": "0x0000000000000000000000000000000000000000000000000000000000000002",
          "blockHash": "0x4610272c6998cf549b84f4cd9e0f58f87d493e15319a158d364a447b00b13b58",
          "blockNumber": "0x13f6107",
          "blockTimestamp": "0x0",
          "transactionHash": "0xd91a249417fd36067d3320ae8652b5bb45f1b5fa70a5845b404ee1b189700838",
          "transactionIndex": "0x4",
          "logIndex": "0x9",
          "removed": false
        },
        {
          "address": "0x10e3399025e930da7b4d4be71181157ccee4e882",
          "topics": [
            "0xa24526d9177ad7404926eef14a34a6c8283948f387d426e2ace696d7bb72d97c",
            "0x0000000000000000000000000000000000000000000000000000000000000002",
            "0x00000000000000000000000096455c9b00d530bd0629b71b674298440328b1dd"
          ],
          "data": "0x",
          "blockHash": "0x4610272c6998cf549b84f4cd9e0f58f87d493e15319a158d364a447b00b13b58",
          "blockNumber": "0x13f6107",
          "blockTimestamp": "0x0",
          "transactionHash": "0xd91a249417fd36067d3320ae8652b5bb45f1b5fa70a5845b404ee1b189700838",
          "transactionIndex": "0x4",
          "logIndex": "0xa",
          "removed": false
        }
      ],
      "logsBloom": "0x04000000000000000000000000000000000000000000000000000001000000000800000000000000000000000000200000000000800000000000000000000000000040000000000000000008000000000000000000000000000000000000000000000000020000000000000000000800000000000000000000000010000000000000000000000000000000000000000000000000000000000010000000000001000000000000000000000100000000002000000000000000000000000800008000000002000000000000000000000000000000000000000000000000000020000000000000000000200000000000000001000000008000000000000000000000",
      "type": "0x2",
      "transactionHash": "0xd91a249417fd36067d3320ae8652b5bb45f1b5fa70a5845b404ee1b189700838",
      "transactionIndex": "0x4",
      "blockHash": "0x4610272c6998cf549b84f4cd9e0f58f87d493e15319a158d364a447b00b13b58",
      "blockNumber": "0x13f6107",
      "gasUsed": "0x5b49f",
      "effectiveGasPrice": "0xb2d05e07",
      "from": "0x96455c9b00d530bd0629b71b674298440328b1dd",
      "to": "0x10e3399025e930da7b4d4be71181157ccee4e882",
      "contractAddress": null
    },
    {
      "status": "0x1",
      "cumulativeGasUsed": "0x18acb6",
      "logs": [
        {
          "address": "0x1a9e3f39cf83e53ca34933f81b409a92ad004246",
          "topics": [
            "0x2c179e1e4a2440acecf6f47ee9d109186409daeeab22578623edc7bf37ddbbc1",
            "0x0000000000000000000000000000000000000000000000000000000000000002",
            "0x00000000000000000000000096455c9b00d530bd0629b71b674298440328b1dd"
          ],
          "data": "0x0000000000000000000000000000000000000000000000000001c6bf52634000",
          "blockHash": "0x4610272c6998cf549b84f4cd9e0f58f87d493e15319a158d364a447b00b13b58",
          "blockNumber": "0x13f6107",
          "blockTimestamp": "0x0",
          "transactionHash": "0x36c582f6b90a67e7cf4d5d9739971450e41d0daf68328be480f7699770a144c9",
          "transactionIndex": "0x5",
          "logIndex": "0xb",
          "removed": false
        }
      ],
      "logsBloom": "0x04000080000000000000000000000000000000000000004000000000000000000800000000000000000000000000000000000000800000000000000000000000000000000000800000000000000000000000000000000000000000000000000000000000000000000000000000000000000000000000008000008000000000000000000000000000000000000000010000000000000000000000000000000000000000000000000000000100000000000000000000000000000000000000000000000000000000000000000000000000000000000000000000000000000000000000000000000000000000000000000001000000008000000000000000000000",
      "type": "0x2",
      "transactionHash": "0x36c582f6b90a67e7cf4d5d9739971450e41d0daf68328be480f7699770a144c9",
      "transactionIndex": "0x5",
      "blockHash": "0x4610272c6998cf549b84f4cd9e0f58f87d493e15319a158d364a447b00b13b58",
      "blockNumber": "0x13f6107",
      "gasUsed": "0x2781c",
      "effectiveGasPrice": "0xb2d05e07",
      "from": "0x96455c9b00d530bd0629b71b674298440328b1dd",
      "to": "0x1a9e3f39cf83e53ca34933f81b409a92ad004246",
      "contractAddress": null
    }
  ],
  "libraries": [],
  "pending": [],
  "returns": {},
  "timestamp": 1771461871211,
  "chain": 16602,
  "commit": "76f1afb"
}